:1000000080010020D1570000514300005B02000036
:100010005B0200005B0200005B0200005B0200006C
:100020005B0200005B0200005B0200005B0200005C
:100030005B0200005B0200005B02000061570000F1
:100040005B020000914D00005B0200005B020000BB
:100050005B0200005B0200005B0200005B0200002C
:100060005B0200005B0200005B0200005B0200001C
:100070005B0200005B0200005B0200005B0200000C
:100080005B020000C10B00005B0200005B0200008D
:100090005B0200005B0200005B0200005B020000EC
:1000A0005B0200005B0200005B0200005B020000DC
:1000B0005B0200005B0200005B0200005B020000CC
:0400DC0054E0C046E6
:0800E000650100003901000078
:1000F0000448054B10B5834203D0044B002B00D0BD
:10010000984710BDAC030020AC03002000000000A5
:1001100006480749091A8B10C90FC91810B54910AC
:1001200003D0044B002B00D0984710BDAC03002037
:10013000AC0300200000000010B5074C2378002B12
:1001400009D1FFF7D5FF054B002B02D0044800E092
:1001500000BF0123237010BDB00300200000000089
:1001600070600000054B10B5002B03D00449054812
:1001700000E000BFFFF7CCFF10BDC046000000004C
:10018000B40300207060000072B6244880F3088831
:10019000234880F30988022080F31488BFF36F8F0F
:1001A00003F03EFE03F0B4FD1E481F491B4A914276
:1001B00002DA08600431FAE71C49194A914202DA6E
:1001C00008600431FAE71A491A4A1B4B9A4204DACA
:1001D0000868106004310432F8E700201749184A13
:1001E000914202DA08600431FAE703F031FE03F0CD
:1001F0001FFE144C144DAC4203DA216888470434C6
:10020000F9E703F095FD114C114DAC4203DA21687A
:1002100088470434F9E70F490847000080010020AF
:100220009003002055555555000000208001002006
:100230007060000090030020AC030020B003002099
:10024000E0070020E0000000E4000000E4000000FF
:10025000E8000000413E000096E700F000F8FEE7ED
:10026000F0B544464D4656465F46F0B46B46CB600B
:10027000C3689D46F0BCA046A946B246BB46F0BD49
:1002800062B6281CA047002004F032F803F0A8FF53
:10029000014A024B1360FEE704ED00E0000000801D
:1002A000002243088B4274D303098B425FD3030AB5
:1002B0008B4244D3030B8B4228D3030C8B420DD3C8
:1002C000FF22090212BA030C8B4202D31212090256
:1002D00065D0030B8B4219D300E0090AC30B8B4294
:1002E00001D3CB03C01A5241830B8B4201D38B0342
:1002F000C01A5241430B8B4201D34B03C01A5241E7
:10030000030B8B4201D30B03C01A5241C30A8B4229
:1003100001D3CB02C01A5241830A8B4201D38B0214
:10032000C01A5241430A8B4201D34B02C01A5241B8
:10033000030A8B4201D30B02C01A5241CDD2C3092A
:100340008B4201D3CB01C01A524183098B4201D3A6
:100350008B01C01A524143098B4201D34B01C01A91
:10036000524103098B4201D30B01C01A5241C30809
:100370008B4201D3CB00C01A524183088B4201D378
:100380008B00C01A524143088B4201D34B00C01A64
:100390005241411A00D20146524110467047FFE7D0
:1003A00001B5002000F0F0F802BDC0460029F7D0EA
:1003B00076E7704703460B437FD4002243088B4205
:1003C00074D303098B425FD3030A8B4244D3030BDC
:1003D0008B4228D3030C8B420DD3FF22090212BAA1
:1003E000030C8B4202D31212090265D0030B8B421D
:1003F00019D300E0090AC30B8B4201D3CB03C01A07
:100400005241830B8B4201D38B03C01A5241430BE1
:100410008B4201D34B03C01A5241030B8B4201D3D1
:100420000B03C01A5241C30A8B4201D3CB02C01A3C
:100430005241830A8B4201D38B02C01A5241430AB4
:100440008B4201D34B02C01A5241030A8B4201D3A3
:100450000B02C01A5241CDD2C3098B4201D3CB014A
:10046000C01A524183098B4201D38B01C01A5241F9
:1004700043098B4201D34B01C01A524103098B42FD
:1004800001D30B01C01A5241C3088B4201D3CB00E8
:10049000C01A524183088B4201D38B00C01A5241CB
:1004A00043088B4201D34B00C01A5241411A00D27B
:1004B00001465241104670475DE0CA0F00D04942E4
:1004C000031000D34042534000229C4603098B4254
:1004D0002DD3030A8B4212D3FC22890112BA030ADC
:1004E0008B420CD3890192118B4208D3890192115E
:1004F0008B4204D389013AD0921100E08909C309E3
:100500008B4201D3CB01C01A524183098B4201D3E4
:100510008B01C01A524143098B4201D34B01C01ACF
:10052000524103098B4201D30B01C01A5241C30847
:100530008B4201D3CB00C01A524183088B4201D3B6
:100540008B00C01A5241D9D243088B4201D34B00D1
:10055000C01A5241411A00D20146634652415B1013
:10056000104601D34042002B00D5494270476346F4
:100570005B1000D3404201B5002000F005F802BD39
:100580000029F8D016E770477047C046002B11D1FC
:10059000002A0FD1002900D1002802D00021C94330
:1005A000081C07B4024802A14018029003BDC046CF
:1005B000D9FFFFFF03B4684601B5029800F02EF89A
:1005C000019B9E4602B00CBC7047C046F0B51504B6
:1005D0002D0C0F0001002E00C64684460004140CAA
:1005E000000C090C46434D43604361434019340CF1
:1005F000241800B5A54203D980204002804641441A
:10060000250C6D18614659437A4330044919240476
:10061000000C2018891804BC9046F0BDF0B5574670
:100620004E464546DE46E0B504000D00924699462A
:1006300083B08B4230D82DD04946504600F0BAF8EE
:1006400029000600200000F0B5F8331A9846203B38
:100650009B4633D45A465346934042461F00534666
:1006600093401E00AF423AD8AF4200D178E05B46DB
:10067000A41BBD41002B00DA75E00022002300928C
:10068000019301235A46934001930123424693402C
:10069000009328E08242CFD90022002300920193E8
:1006A0000C9B002B01D01C605D600098019903B089
:1006B0003CBC90469946A246AB46F0BD424620233C
:1006C0009B1A5246DA40414613004A468A401700B8
:1006D00042461F43534693401E00AF42C4D90022F6
:1006E0000023009201934346002BD9D0FB077208E8
:1006F0001A4346467B080EE0AB4201D1A2420CD819
:10070000A41A9D41012024196D410021013E2418A5
:100710004D41002E06D0AB42EED9013E24196D4169
:10072000002EF8D1009801995B4600196941002B11
:1007300024DB2B005A464446D3402A00E2401C00EA
:100740005B461500002B2ADB26009E403300260066
:100750004746BE403200801A9941009001919FE7C0
:10076000A342BCD883E74246202300219B1A0022E3
:10077000009101920122DA40019286E7424620234D
:100780009B1A2A0046469A402300F34044461343EE
:100790002A00E2401C005B461500002BD4DA4246DA
:1007A0002F002023260097409B1ADE403B00334356
:1007B000CDE7C04610B5002903D100F007F820307E
:1007C00002E0081C00F002F810BDC0461C21012305
:1007D0001B04984201D3000C10391B0A984201D324
:1007E000000A08391B09984201D30009043902A202
:1007F000105C40187047C046040302020101010169
:100800000000000000000000F0B5C64600B50F2A49
:1008100041D903270D003E0005430C0003002E4084
:100820002F423DD11500103D2D09AC462D01A846A3
:100830008044256867681D605F60A568E7689D6003
:10084000DF6010341F0010334745F2D165460F2397
:100850000C2401352D01491913404519144222D0A9
:100860008C59AC5104369C1B032CF9D80324043B4F
:100870009B0801339B002240ED18C918561E002A20
:1008800006D00023CC5C1A00EC5401339642F9D117
:1008900004BC9046F0BD0500561E002AF1D1F7E7D2
:1008A0000500561EEDE71A00F6E7C046F0B5050054
:1008B00083074AD0541E002A44D003000322CEB23C
:1008C00002E00135013C3DD301332E701342F8D1D3
:1008D000032C2FD9FF220A40150215432A04154381
:1008E0000F2C35D92700103F3F093E01B4461E00AA
:1008F0001A0010366644156055609560D560103258
:10090000B242F8D10F260C2201373F012640DB19F5
:100910003700224217D03E1FB608B400A4461A0082
:100920001C1D644420C2A242FCD103240136B6003F
:100930009B193C40002C05D0C9B21C191970013319
:100940009C42FBD1F0BD3400F4E714000300BFE784
:100950002700E0E7000000000000000000000000A9
:100960007047C046000000000000000000000000CA
:1009700010B5FFF7F5FF10BD0000000000000000FB
:100980007047C046000000000000000000000000AA
:1009900010B5FFF7F5FF10BD0000000000000000DB
:1009A000014B4000185A7047D0030020000000009F
:1009B0007047C0460000000000000000000000007A
:1009C000F8B5CE464746404C0F25260080B53F4837
:1009D00014362900032201400434A84304F018F916
:1009E000B44201D02068F4E7394C0F25260039487D
:1009F000383600E020682900032201400434A8436F
:100A000004F006F9B442F5D114239946133B0F279D
:100A10009846314D314CA94426003C40BE43062245
:100A20002100300004F0F4F84346A3400435B362DB
:100A30004D4501D02C68EFE70023294A05201360BB
:100A400053601381274A13605360138100F0D0FC78
:100A500000F00EFA8021244A13680B4313602F2301
:100A6000224A9360D233FF33D3618023918BDB0022
:100A70000B4393838023918B1B010B439383FF23B1
:100A80000221D367FD3B1360080013681840194228
:100A9000FAD1012113680B4313609423D05004331F
:100AA000D050134B9B31535004315350C0238021FD
:100AB000104A5B008902D1501120042104F020F873
:100AC0000CBC90469946F8BD88580000048004404C
:100AD0003C5800000040044074580000018004406D
:100AE000DC030020D003002000E00540002000408F
:100AF000FF1F010000E100E0000000000000000016
:100B000010B500F0C5F972B60022024B18781A70C1
:100B100062B610BDDA0300200000000000000000F3
:100B2000F8B5204B8200D3580F251E00CE4647460D
:100B3000AE431D400622290080B58046300004F0F7
:100B400067F80123AB40A946B362002200270F20BB
:100B500001241549154B00E00B681D0085432D68E5
:100B60000340DD4000232C4202D1230093401BB2FE
:100B70001F430132BFB204310E2AEDD10322494690
:100B8000300004F045F84246094B5400E25ABA429C
:100B900003D00122E752074B1A700CBC90469946CD
:100BA000F8BDC046885800003C5800000040044092
:100BB000DC030020DA030020000000000000000039
:100BC000F0B5D6464F464646594C09212368C0B574
:100BD000581CF046FFF7EAFB564B216018789A46FE
:100BE000554B99464A468300D2580F2314009C4324
:100BF000134001229A40A262002938D14F4CA02311
:100C000025004F4A26000F274E48D150383500E0C6
:100C100030683900032201400436B84303F0F8FF7E
:100C2000B542F5D153461878FFF77AFF0F274548AC
:100C300000E020683900062201400434B84303F084
:100C4000E7FFA542F5D1002294213D4B3E485A5082
:100C500004315A503D4A04315A5004315A503C4BE9
:100C600005221B783B4900F0CBFB53461878052141
:100C70000130FFF785FC53461970CB0036485B1AEC
:100C80005B00C45C2E4AE4B214625C1C045D890003
:100C9000E4B254629C1C045DE4B29462DC1C045D0A
:100CA000E4B2D4621C1D045DE4B214635C1D045DF7
:100CB000E4B254639C1D045DE4B29463DC1D045DE6
:100CC000E4B2D4631C000834045DE4B214641C0074
:100CD0000934045DE4B254641C000A34045DE4B2D7
:100CE00094641C000B34045DE4B2D4641C000C3426
:100CF000045D0D33E4B21465C35CDBB213664B468E
:100D000059580F23080098430B4001210C009C40C8
:100D100000234462536011608021A83309044046D7
:100D2000D15003F01DFB1CBC90469946A246F0BD75
:100D3000E8030020CC030020745800003C58000059
:100D40000020004000400440DC030020FF1F0100A1
:100D5000DA030020D0030020EC0300200000000094
:100D60007047C046000000000000000000000000C6
:100D7000014B19547047C046EC03002000000000EE
:100D8000034B1A004632187001339342FBD170476F
:100D9000EC03002000000000000000000000000044
:100DA0007047C04600000000000000000000000086
:100DB000012070470000000000000000000000005B
:100DC000012070470000000000000000000000004B
:100DD00010B5FFF7F5FF10BD000000000000000097
:100DE0007047C04600000000000000000000000046
:100DF00010B5FFF7F5FF10BD000000000000000077
:100E000010B5124B82B01B780090002B0FD16B46AF
:100E10009B78002B01D0002A10D1009802F0D0F866
:100E200004002000009900F0D3F802B010BD009833
:100E300002F0EEF8009900F0CBF8F6E702F0E8F8DF
:100E400004000100009802F08BF8EAE7D2040020C9
:100E500010B504000388408800220004A1881843CC
:100E6000FFF7CEFF2100FFF7C3FF10BD0000000019
:100E700010B502F0E5FA002804D000F0C1FBFFF73E
:100E800077FD10BD02F0D4FAF7E7C046000000007D
:100E900010B500F055FBFFF77BFD10BD0000000012
:100EA0007047C04600000000000000000000000085
:100EB00010B501F0D5FBFFF7F3FF034803F020FA6C
:100EC00002F0C6FC10BDC046C409000000000000CE
:100ED00070B5040003884088A188000401221843EB
:100EE000FFF78EFF21000500FFF772FF002801D1F8
:100EF000002070BD2100280000F0CAFC0028F7D0B7
:100F00002100280000F064FD0028F1D02100280015
:100F100000F0CEFD0028EBD02100280000F0E0FE1C
:100F20000028E5D0A378002B0AD0B823DB019D422E
:100F30000AD0074B9D4203D102F07AFA0020D8E78D
:100F40002000FFF735FFD4E7FFF7B2FFD0E7C04638
:100F5000DF5C000000000000000000000000000056
:100F60007047C046000000000000000000000000C4
:100F700010B5FFF7F5FF10BD0000000000000000F5
:100F80000120704700000000000000000000000089
:100F900010B5FFF7F5FF10BD0000000000000000D5
:100FA00010B50400FFF7E4FF201CFFF7F1FF10BDB0
:100FB000002070470000000000000000000000005A
:100FC0007047C04600000000000000000000000064
:100FD0000A04120ED3009B1A462242435B00C9B298
:100FE0009B185B18024A5B00D05A82B002B070476F
:100FF000AC580000000000000000000000000000ED
:10100000014B4000185A7047C4590000000000000E
:1010100030B583B001AB19800199FFF7D9FF00F01B
:10102000EFF8A4230400DB0198423BD2013BFF3BD5
:10103000984200D3B4E0C0239B01984221D2802380
:101040009B01984200D3B0E0DF280FD8BF2800D919
:10105000B1E0012807D00023A021021F92B29142E3
:101060005B415B421C40201C03B030BDE728FAD92D
:10107000F822431EFF3B9BB25201934264D2A4B2BA
:10108000F1E7A023DB01984228D28023DB019842BC
:101090005CD2030500D494E0FF202040C824240241
:1010A0000443E0E7AC23DB01984227D2013BFF3B3E
:1010B000984251D2013BFF3B98421AD2013BFF3B81
:1010C000984254D20323C4B2A00840012340012413
:1010D0009C4020433E4C0443A4B2C4E70323C2B265
:1010E0009408000918401C4000026401204313408A
:1010F000EDE7384CC0B200020443B4E7B423DB018F
:1011000098420DD2013BFF3B98423CD2324BC31870
:101110009BB2FF2B18D8314C00020443A4B2A2E7C3
:1011200080252F4BAD01C3189BB2AB420CD2C0043B
:10113000C00E00F0F5F8F82300025B011840FF2311
:101140001C4004432C438EE700248CE725482040B4
:10115000A0242402044386E7C0B200F0E1F8F8249A
:101160000002640120400134FF3404437BE7032381
:10117000C4B2A008234001249C40400120431A4CE3
:101180000443A4B26FE70F252800204000F0C8F800
:10119000240925402D02154C05432C43A4B262E7D7
:1011A000134CC0B2000204435DE70005000DFFF7D9
:1011B00027FF040057E7C03880B2FFF721FF040083
:1011C00051E7FF202040C024240204434BE7C046DF
:1011D000008CFFFFF4A0000000A8FFFFF0A0FFFFBD
:1011E00000A0FFFFFF0F0000008AFFFF0090FFFF3D
:1011F000F1A000000000000000000000000000005E
:10120000E72818D8DF2817D90300E03B9BB2072B4B
:1012100011D83E4A9B00D3589F463D4A11784B0750
:1012200000D571E05378DB0719D410230B405A42E4
:1012300053415B421840704739280AD82828FAD908
:101240000300293B9BB2102BF5D8324A9B00D358A0
:101250009F468228EFD12E4B1B789B07EBD0E020D6
:10126000E9E72B4B1B789B06E5D52920E3E7012313
:10127000274A11780B4243D152781342DBD0102019
:10128000084043425841E32340421840D3E7204BF3
:101290001B785A07CFD51020184043425841E3230A
:1012A00040421840C7E71A4B5A789207C3D51B78BB
:1012B0001020184043425841E72340421840BAE703
:1012C000134B1B781A07F3D4B5E7114A11780B07B3
:1012D00018D453789B07A8D5E420ACE70C4B1B78B7
:1012E0009B06A8D53520A6E7094B1B785B06A2D53F
:1012F0003120A0E7064B1B785B069CD52A209AE795
:10130000392098E7E62096E7E22094E7C4590000E8
:101310008C050020E45900000000000000000000DF
:10132000304A1378590707D518210140082937D0CA
:101330001421014004294AD0190707D5182101407A
:10134000182932D014210140142945D05278D107F0
:101350000ED4920707D518220240182A1BD011225A
:101360000240112A2DD0DB0601D5E7231840704733
:1013700018210140082908D0112101400129E8D194
:101380008843C0B207310843E3E788430121C0B274
:101390000843C0B2DDE79043C0B2073A1043E2E72A
:1013A000884304210843C0B2C6E788431421084398
:1013B000C0B25278D107CCD5112101400129C8D142
:1013C000DEE790431822C0B21043C0B2CBE7884397
:1013D00008210843C0B2AFE7884318210843C0B2D0
:1013E000E7E7C0468C050020000000000000000078
:1013F0007047C04600000000000000000000000030
:10140000F8B505000E001400114F002B03D13B78F6
:10141000002B09D1F8BD01233B7002F0C1F90D4B3F
:1014200018803B78002BF5D00A4B188802F0E0F9C1
:101430000528EFD9002C07D000230022E95A0132F9
:10144000F1520233A242F9DB00233B70E2E7C046CF
:1014500032040020340400200000000000000000DE
:10146000014B185C7047C0463804002000000000A3
:10147000034A83185B78105C1B0218437047C04610
:101480003804002000000000000000000000000000
:10149000030010B5064C021950789178E35C0904FA
:1014A000000208431843D3781B06184310BDC046FA
:1014B00038040020000000000000000000000000D0
:1014C000024B1954C018090A4170704738040020B3
:1014D000044B1954C0180B0A43700B0C090E83708F
:1014E000C1707047380400200000000000000000B8
:1014F000014B19547047C04638040020000000001A
:1015000010B5FFF7DDFF10BD000000000000000077
:1015100010B5FFF7DDFF10BD000000000000000067
:101520007047C046000000000000000000000000FE
:101530007047C046000000000000000000000000EE
:1015400070B5264D82B02B789B073CD0244A136897
:1015500001331360234A1368591C01D0013313600F
:10156000214B224E190000203478463104E001322C
:101570001A7001338B420CD01A78FF2AF9D0FE2A58
:10158000F5D1201C002C00D101200138C4B201206B
:10159000EDE7002800D034702B789B08012B09D090
:1015A000134CFFF7BDFFFFF7C3FFE36801939847B4
:1015B00002B070BDEB780E4C5801C01AA368C0B2DF
:1015C00001939847EDE70A4B00209B6801939847E9
:1015D000FFF7A6FFFFF7ACFFEAE7C046AC04002028
:1015E000A80400205C04002060040020A604002061
:1015F0009C580000000000000000000000000000F7
:1016000030B51D4B83B01B68019398471B4802F00F
:1016100077FE1B4BFF22190046311A7001338B42B3
:10162000FBD101F00DFF051E0BD0164C0820FFF773
:101630002FFFFC23020020601A4018420ED003B096
:1016400030BD01F0F5FE05230E4C082023707B33DE
:10165000E37021682571FFF75BFFE7E7F73B237035
:101660007B33E370082021682271FFF751FF0820C7
:10167000FFF70EFF2060E2E79C580000881300008F
:1016800060040020AC040020000000000000000006
:1016900010B5034BD87019680820FFF739FF10BD4B
:1016A000AC0400200000000000000000000000006A
:1016B00010B5FFF7EDFF10BD0000000000000000B6
:1016C00010B501F0BDFE002819D001F0F9FE0300AD
:1016D0000C491A060870D20EC0B2082A05D9072292
:1016E000402302401A430A70D3B20122100018406E
:1016F0001A4201D00878C008FFF7DAFF10BD01F0E8
:1017000097FEE2E7B40400200000000000000000A3
:1017100010B50C4C2378DA083F2B07D81F21013273
:1017200011400722C90013400B4323700123207886
:1017300018432070C0B201F0CBFE2078C008FFF73C
:10174000B7FF10BDB404002000000000000000003E
:1017500010B50C4C072223781900914304D120784E
:10176000C008FFF7A5FF10BD083BDBB2180090438F
:10177000421E9041012293431843207001F0A8FEBD
:10178000EDE7C046B40400200000000000000000A7
:10179000012310B5084C207818432070C0B20128EE
:1017A00002D109230830237001F092FE2078C0088E
:1017B000FFF77EFF10BDC046B4040020000000000B
:1017C0000122054B10B518789043187001F080FE87
:1017D0000020FFF76DFF10BDB404002000000000E2
:1017E000054B10B51B78DA0702D4FFF7D1FF10BD07
:1017F000FFF7E6FFFBE7C046B4040020000000004E
:101800001F2310B5114C2178CA0801321340082B50
:1018100017D80722DB0011400B43237023780722DF
:10182000190091430A0001218B43501E8241180088
:101830001043207001F04CFE2078C008FFF738FFFD
:1018400010BD072319402170E8E7C046B40400200A
:1018500010B5031C082800D9082307220A4CD8B267
:101860002378C10013400B43DBB2190091430A00F7
:10187000511E8A4101218B4313432370FFF718FF48
:10188000207801F025FE10BDB40400200000000007
:1018900010B503008878002801D1012010BD124A3C
:1018A000944663449BB2052BF8D8104A9B00D3584A
:1018B0009F46FFF795FF0020F0E7FFF7A1FF00200C
:1018C000ECE70820FFF7C4FF0020E7E70020FFF760
:1018D000BFFF0020E2E7FFF73BFF0020DEE7FFF756
:1018E00017FF0020DAE7C04644A3FFFF285A000094
:1018F000F8B5140006AA177882781D00304B002A2C
:1019000008D11E78A6421FD023002033DBB2072B5C
:1019100012D9F8BD1C7001F043FF2A4B1880230038
:101920002033DBB2072BF4D8072201201440A0405B
:10193000C0B200F065FEECE7072201201440A04091
:10194000C0B200F06DFEE4E71E4B188801F050FFB6
:10195000C728D9D8AE420DD033002033DBB2072BD5
:1019600025D92B002033DBB2072B14D9380000F027
:101970002FFECEE7380000F02BFE33002033DBB221
:10198000072BC6D8072301241E40B440E4B2200030
:1019900000F046FEBDE7072301242B409C40E4B243
:1019A000200000F02DFE380000F012FEEFE70723C4
:1019B00001201E40B040C0B200F032FED1E7C04668
:1019C000B5040020B6040020000000000000000064
:1019D0002B4A0300944600B563449BB2080083B0D1
:1019E0001F2B03D8274A9B00D3589F468078002896
:1019F00043D00022244B1A7003B000BD2623E122FD
:101A000000932249BB33FFF773FF0020F4E727233D
:101A1000E52200931E49BE33FFF76AFF0020EBE783
:101A20002823E52200931B49273BFFF761FF002095
:101A3000E2E72623E02200931749BB33FFF758FF64
:101A40000020D9E72723E42200931449BE33FFF78F
:101A50004FFF0020D0E72623E22200931049BB333A
:101A6000FFF746FF0020C7E72723E62200930D4932
:101A7000BE33FFF73DFF0020BEE70120BCE7C046B4
:101A800028A3FFFF405A0000B5040020D85C0000E6
:101A9000D95C0000DA5C0000F45C0000F55C00003A
:101AA000F65C0000F75C0000000000000000000091
:101AB00070B504008878002819D0804B9C4203D868
:101AC0007F4B9C4215D870BD7E4BE318082BFAD88B
:101AD00001F0D6FC7C4B7D4D9C466444A4B228802A
:101AE000072C00D9DDE07A4BA4001B599F4601204A
:101AF000E9E701F0C5FC774B744D9C466444A4B201
:101B00002880122C00D9D2E0734BA4001B599F46A9
:101B1000012001216B78DA07D20F42400A408B4343
:101B200013435100022293430B436B70288801F04A
:101B3000B7FC00F095FD0020C5E703226B789343C6
:101B40006B702888F3E703226B78934313436B7021
:101B50002888ECE702226B7893436B702888E6E7CD
:101B600001226B7893436B702888E0E702226B7840
:101B700013436B702888DAE7012001F0B1FC288854
:101B8000D5E7002001F0ACFC2888D0E70C222B78A8
:101B900093432B702888CAE700F062FD7F232A78E0
:101BA00013402B702888C2E740222B7893432B7078
:101BB0002888BCE720222B7893432B702888B6E72F
:101BC00010222B7893432B702888B0E708222B78BB
:101BD00093432B702888AAE704222B7893432B7019
:101BE0002888A4E702222B7893432B7028889EE74D
:101BF00001222B7893432B70288898E70C222B78AE
:101C0000934313432B70288891E700F029FD80232C
:101C10002A785B4213432B70288888E740222B7870
:101C200013432B70288882E720222B7813432B70D4
:101C300028887CE710222B7813432B70288876E7BE
:101C400008222B7813432B70288870E704222B7806
:101C500013432B7028886AE702222B7813432B70DA
:101C6000288864E700F0FCFC01232978CA095A405F
:101C70007F23D2010B4013432B70288857E70121A3
:101C80002B7804205A07D20F4A4001210A409100C4
:101C900083430B430821D2008B4313432B702888C6
:101CA00045E701226B7813436B7028883FE70122D8
:101CB0002B7813432B70288839E7C046155C000049
:101CC000015C000005A3FFFF04A3FFFF8C050020BB
:101CD000C05A0000FDA3FFFFE05A00000000000012
:101CE000154A10B501230C00904201D0180010BD18
:101CF00001F04EFAA378002B11D0AA210840431E10
:101D000098410E4B414218700C200D4B0140293177
:101D1000186801F03DFC01F0B3FA0023E6E7074B39
:101D200019784B1E99414B420C211940044B293123
:101D3000186801F06DFCEEE7165C0000B8040020A6
:101D400090030020000000000000000000000000E0
:101D5000014B18607047C046BC0400200000000022
:101D6000044B10B51B68002B02D01B68984710BDB0
:101D70000020FCE7BC040020000000000000000080
:101D80000A4B10B51B68002B05D0094A1278002AAF
:101D900002D15B68984710BD064A12787F2AF8D9AD
:101DA0000278427005220270F3E7C046BC040020AE
:101DB000940300208C0500200000000000000000BB
:101DC000064B10B51A88824206D01880044B1B6857
:101DD000002B01D0DB68984710BDC046C20400202C
:101DE000BC04002000000000000000000000000013
:101DF000064B10B51A88824206D01880044B1B6827
:101E0000002B01D01B69984710BDC046C0040020BC
:101E1000BC040020000000000000000000000000E2
:101E20007047C046000000000000000000000000F5
:101E30007047C046000000000000000000000000E5
:101E400010B5FFF7F5FF10BD000000000000000016
:101E50007047C046000000000000000000000000C5
:101E600010B5FFF7F5FF10BD0000000000000000F6
:101E700010B5FFF7D5FFFFF7E3FF10BD000000002E
:101E8000012070470000000000000000000000007A
:101E900010B5FFF7F5FF10BD0000000000000000C6
:101EA0007047C04600000000000000000000000075
:101EB0007047C04600000000000000000000000065
:101EC00010B501F055FCFEF77BFD01F0D9FCFFF7E2
:101ED000F7FB8022054B524219780A431A70188882
:101EE00001F0DEFAFFF7BCFF10BDC0468C050020F4
:101EF000F0B5DE4657464E464546E0B583B0FFF79F
:101F0000CFFFFFF7D5FFFEF7FBFDFFF7C1FF00286E
:101F100014D0334B002699461F00324B9B460223B8
:101F20009A46F3B218009846FEF73AFD3C88050041
:101F3000844225D101360237052EF2D101236A46AB
:101F40005B4213800023937001F02AFC01231843A5
:101F50006B4698800199009800F04AF8FFF700FF5F
:101F6000214C2378834204D0FFF7FAFE2070FFF75C
:101F700017F803B03CBC90469946A246AB46F0BD6C
:101F80005B4652461B781A4226D16C40A2B200230F
:101F9000012405E001336400DBB2A4B20E2BC9D0EA
:101FA0001442F7D06A4625401370681E85416B467F
:101FB00042469D705A7001F0F3FB012318436B46B3
:101FC00098800199009800F013F84B4676009B5BCF
:101FD0005C404B469C53C1E7FEF7EAFCD5E7C046A0
:101FE000C804002080050020C40400200000000078
:101FF000002200B585B002ABDA8002909980039987
:1020000000F0C6FD05B000BD0000000000000000AB
:1020100010B5008801F08CF810BDC046000000002B
:1020200070B5041E08D0031FDBB2A02B05D9030036
:102030002033DBB2072B0ED970BD0F4D010028688D
:1020400001F076FA002810D12100286801F0A0FAEA
:1020500001F016F9F0E7072004400638A040C0B2AE
:1020600001F09EF801F00CF9E6E72100286801F084
:10207000CFFA01F005F9E7E7900300200000000027
:10208000010010B5002814D0031FDBB2A02B11D91A
:1020900003002033DBB2072B17D903005B33DBB21D
:1020A000022B0ED95831C9B2162902D80020FFF7E9
:1020B0009FFE10BD0A4B186801F0AAFA01F0E0F883
:1020C000F7E70020FFF77CFEF3E707200140063822
:1020D0008840C0B201F06CF801F0D2F8E9E7C046E0
:1020E000900300200000000000000000000000003D
:1020F000F0B5D6464F464646837905001B099946FA
:102100008378C0B59A460C1C002B10D1260401F030
:102110002FF8370FC34ABB00D3589F46083F032F01
:1021200000D8B2E11CBC90469946A246F0BD01F031
:102130005FF801F01DF826048046002814D00F2215
:10214000330E9343402B06D0230000222033DBB212
:102150009046072B08D9022001F0F2F801F008F8A8
:1021600001235840C3B29846AF4A370FBB00D3583B
:102170009F46002398460F23360E9E43202E00D103
:102180004DE12605360F3601F6B2E4B2002C00D13F
:1021900050E1012C00D15DE15346002B00D1E3E07A
:1021A0004B46002B05D0AA79D30765D50F231340E2
:1021B000AB71002E04D0300000F0F2FF01F060F8A7
:1021C000083F032F37D94346002BABD000F0C8FFA0
:1021D00001231A0002400342A4D1AA7000F0B8FF04
:1021E00000F056FE280000F0C3F900F0B1FF00F047
:1021F0005FFE97E7002B00D0A6E0A305DB0F002BC6
:1022000019D023065B0F9B002007DBB2000F98401C
:10221000E20603D50F229A40D34318432405A40FA6
:10222000022C00D178E1032C00D172E1012C00D105
:1022300075E100F06DFEFFF793FDFEF7B1FEC2E71A
:10224000002398460F23360E9E4366D12605360F8F
:102250005346E4B2002B00D104E1002E0CD0230041
:102260002033DBB23000072B02D9002C00D044E130
:1022700000F096FF01F004F82000FFF7D1FE9FE781
:10228000E6B233001033DBB2042B00D926E1674AF3
:102290009B00D3589F46E0B2002800D0F8E020050C
:1022A000000F00F005FEFFF75BFDFEF779FE39E752
:1022B000002398462205120FE1B22800FEF778FEAF
:1022C00000F0D6FC7FE700239846B6015346B60FD0
:1022D00090D1002BAFD123065B0F9B002007DBB210
:1022E000000F9840E20603D50F229A40D3431843CB
:1022F0002405A40F022C00D108E1032C00D102E137
:10230000012C00D1FCE000F063FD94E722052800D9
:10231000120FE1B2FEF754FE55E72605360F3601DF
:10232000F6B295E722052800120FE1B2FEF748FE4B
:10233000F8E6E6B233001033DBB2042B00D9C2E07A
:102340003B4A9B00D3589F46E305DB0F57E7200528
:10235000000F00F09DFDE0B2002800D16BE700F017
:102360001FFF00F08DFF66E74B46002B00D1A5E074
:10237000392C00D1E0E0012001F0C2FF2000FFF77E
:102380007FFE1DE70023984600F062FD18E700235A
:102390009846E004C00E00F07BFD11E7002398464C
:1023A000E004C00E00F084FD0AE7002398464B4687
:1023B000052B00D904E7E004C00E00F089FDFFE61C
:1023C000012000F0BDFF002398464B46012B00D8AA
:1023D000F6E6022000F0B4FFF2E65346002BD3D01D
:1023E000E004C00E00F044FDEAE65346002BD0D0D6
:1023F000D6E75346002BD3D0CBE75346002BD6D09D
:102400004B46042B00D9DBE6D5E7E404E40E2000BC
:1024100000F03EFD0321200000F082FFD0E62605FB
:10242000360FB2E62C5B00006C5B0000AC5B00007A
:10243000C05B00005346002B2FD04B46002B01D031
:10244000012B6FD000F0F4FE3043C0B2002800D161
:10245000B6E6B1E65346002B2CD04B46052B00D9EF
:10246000AEE6A6E62000FFF70BFE002E00D1A7E6A1
:1024700023002033DBB23000072B01D9002C58D1C8
:1024800000F096FE00F0FCFE9AE600239846D2E6A5
:1024900000F08EFE00F0F4FE01E74B46002B02D068
:1024A000012B00D18CE600F01BFF002E00D187E647
:1024B0003000E5E74B46042B00D981E6002E00D121
:1024C0007EE63000DCE75346002B09D04B46002B5C
:1024D00000D15EE73000FFF7A3FD71E600239846C8
:1024E0004B46002B00D15BE7392E2AD0012001F0AA
:1024F00007FF3000FFF7C4FD62E600F069FEB9E6B1
:1025000000F056FC97E600F043FC94E600F070FC07
:1025100091E600F08DFC8EE600F00AFD8BE600F0FF
:10252000E7FC88E600F084FE3043C0B200F098FE7D
:1025300046E600F055FEA5E7C820800001F0E0FE69
:102540001CE7C820800001F0DBFED2E7000000009D
:1025500070B504008078218800F08AFD051C00F029
:10256000F7FC00F00DFC291C2000FFF7C1FD70BD39
:1025700030B5858883B004000100022201A8FEF76F
:1025800043F9002D0FD06B469A880D4B9A420AD022
:102590002000FEF79DFC002807D02000FFF7D8FFA1
:1025A0002000FEF755FC03B030BD00F0E1FD00282F
:1025B000F9D0A378002BF6D0022000F0C1FEF2E79C
:1025C000FFFF00000000000000000000000000000D
:1025D00010B50400FFF724FD392C06D0012001F0CE
:1025E0008FFE2000FFF74CFD10BDC820800001F0D9
:1025F00087FEF6E700000000000000000000000079
:1026000010B5002800D110BD00F0CAFD00F038FE62
:10261000F9E7C046000000000000000000000000D4
:1026200010B5002800D110BD00F0C2FD00F028FE5A
:10263000F9E7C046000000000000000000000000B4
:1026400010B5054B186801F00BF800F0D1FD00F053
:10265000E7FD00F015FE10BD900300200000000013
:1026600010B500F0ADFDFFF7EBFF10BD000000005E
:1026700010B500F0BDFD00F0D3FD00F001FE10BD6F
:10268000030411491B0F9B00CB58C2B29F46F02A8E
:1026900018D00AD80020E72393424041C0B200E09E
:1026A000002070470005C00FFBE7F43A504250414C
:1026B000C0B2F6E70120E72AF3D9F13A504250417F
:1026C000C0B2EEE70120ECE7D45B000000000000A0
:1026D00000B583B001AB1880019800F029FDFFF729
:1026E000CFFF03B000BDC0460000000000000000A6
:1026F00082B002B07047C046000000000000000039
:1027000082B002B07047C046000000000000000028
:10271000F8B50A4B0A4E1C783378A3420CD0072731
:10272000084DE300E858EB185968FFF7E9FF3378E4
:1027300001343C40A342F4D1F8BDC0461D05002041
:102740001C050020DC040020000000000000000048
:10275000F0B5DE4657464E464546E0B5234B244A83
:102760001B78147883B0A34239D0224A224891467C
:10277000224A86889046072201A9934604E05A46D9
:1027800001331340A3422AD002880A80002EF6D0DB
:1027900092B24A45F3D045464778DA00BA46AD18BA
:1027A0006F78BA45EBD10778BC464746D25D944571
:1027B000E5D1AA78002AE2D1AA88921B92B2C72A50
:1027C000DDD80F23102182791A400A438271AA7939
:1027D00013400B43AB71FFF7CBFEFFF799FF03B03C
:1027E0003CBC90469946A246AB46F0BD1D05002074
:1027F0001C050020FFFF0000D4040020DC040020A2
:10280000F0B557464546DE464E460400E0B587B073
:102810000622010002A8FDF7F7FF2378BC4D0193C3
:10282000A3782F889846A38804AE9A46AB8862782E
:102830003780002B40D0B749B8B2884203D0A8787F
:102840008146002851D13788B248874234D0AF78CA
:10285000002F31D15146CB1A9BB2C72B00D9D8E0FB
:102860004746002F35D02B883380834207D001980C
:1028700002A908704A700888984200D1E7E00199DF
:1028800002AB19705A700298FFF722FF002800D19E
:10289000D5E0082221002800FDF7B6FF0F22AB7912
:1028A000934304D1AB78002B01D0FFF751FF03CD48
:1028B000FFF726FF012710E04346002B09D00199BE
:1028C00002AB19705A700298FFF702FF002800D07F
:1028D00071E02000FFF74CFE0127380007B03CBC38
:1028E00090469946A246AB46F0BD5046C31A9BB2ED
:1028F000C72B23D9AB790F201900814300D1C3E046
:10290000019802A908704A700A88BA4200D1D5E03D
:102910000298FFF7DDFE0028DBD04346002BD8D01D
:10292000AB791F2BB5D92A88300032800022B270D3
:102930005246B371B280FFF71BFEAAE7AB799C4603
:102940000F236046984344D1019802A908704A7049
:102950000988B94253D053464746002B4AD0019BC1
:102960007270337033886B498B4243D0002F4AD149
:10297000694B6A481B78017888468B4200D1ABE0EE
:1029800067498C4607218A4605E0504601330340DB
:10299000434500D1A0E06546D8002D186E789642D8
:1029A000F3D166460199305C8842EED1A8780028C0
:1029B000EBD0002791E7082221002800FDF724FF33
:1029C0002800FFF725FB0F22AB79934300D169E77D
:1029D0006DE7019902AB19705A701B88BB4297D101
:1029E0004346002B00D1AFE00298FFF771FE0028AC
:1029F00096D16EE74346002B05D100276DE7474689
:102A0000002F00D1AFE00122AB7900271343AB7157
:102A100063E7414602AB99705146998001995A701B
:102A2000197002980399FFF763FE0822002128001D
:102A3000FDF73CFF00200021FFF762FE4DE7012279
:102A4000AB7920001343AB71FFF792FD45E7AB79FB
:102A5000DA0773D40F22190091436FD0A371F029C4
:102A600006D0D9B20B0901331B010A401A43A271E7
:102A70002000FFF77DFD210008222800FDF7C4FE9D
:102A800003CDFFF73DFE28E7414602AB9970514662
:102A9000998001995A70197003990298FFF728FEDE
:102AA0002800FFF765FD082200212800FDF7FEFE43
:102AB00000200021FFF724FE00270EE74246002AEF
:102AC00092D12000A371FFF753FD082200212800B6
:102AD000FDF7ECFE4F4600E7019902AB5A70197002
:102AE000029800F025FBC2B20004030F012B19D895
:102AF0000001000F02D0002A00D1EEE62032D2B24F
:102B0000072A00D8E9E62000FFF732FD4F46E4E649
:102B1000D4040020FFFF00001D0500201C0500203C
:102B2000DC0400200F210E330B40012BEBD8000EEC
:102B30000142E3D0A3798B43E0D1CEE60822210005
:102B40002800FDF761FEC8E663462000A371FFF789
:102B50000FFD082221002800FDF756FE03CDFFF7E8
:102B6000CFFD4F46B9E66246134010221343AB71C6
:102B700028686968FFF7C4FD2800FFF7F9FCAB7906
:102B8000A371AAE6000000000000000000000000A1
:102B9000F0B587B06C46009020006160FFF730FE12
:102BA000071E2BD02288A3882282002B1ED1294CFD
:102BB000294E20783378834216D00727274D0DE021
:102BC0002378DB00E858EB185968FFF799FD207867
:102BD0003378013038402070834205D0C000281877
:102BE000FFF70EFE0028EBD107B0F0BD228A1C4B88
:102BF0009A42DCD003CCFFF783FDD8E704AB1A0080
:102C0000210021C921C21A88A088A2810028CED023
:102C1000A189134A9142CAD007210F4E3278541C21
:102C200021400C4C2578A94209D00C4DD200988047
:102C3000AD1805CB05C53170FFF76AFDB9E7FFF7A1
:102C40000FFD08220021074837702770FDF72EFE80
:102C5000CAE7C0461D0500201C050020DC0400203A
:102C6000FFFF0000D404002000000000000000006E
:102C7000F8B5CE464746030080B500284AD0072263
:102C800018789046063A00267F2791465D1C7428E6
:102C900019D0742837D8022847D022D9031F6F2BA8
:102CA00038D8FFF7BDF9741EE4B2002E06D0013CFF
:102CB0000A20E4B201F024FBFF2CF8D12B00187895
:102CC0005D1C7428E5D19D1C5B785C1EE4B2002B72
:102CD000E9D0013C0A20E4B201F012FBFF2CF8D14C
:102CE000E1E7012816D19D1C5B781A002032D2B290
:102CF000072A2ED8424613409840C0B200F080FA0E
:102D000000F0BEFACFE775280CD003007C33DBB2AD
:102D10006F2B03D90CBC90469946F8BD3840FFF79D
:102D2000AFF9C0E75E789D1CBDE758789D1C030095
:102D30002033DBB2072B09D8434618404B4683406B
:102D4000D8B200F065FA00F09BFAACE7FFF798F90B
:102D5000A9E71800FFF764F9A5E7C04600000000E6
:102D60007047C046000000000000000000000000A6
:102D700010B5FFF7F5FF10BD0000000000000000D7
:102D80007047C04600000000000000000000000086
:102D900010B5FFF7EDFF024B1860FFF769FC10BD9F
:102DA00020050020000000000000000000000000DE
:102DB00010B5044C23681843FFF7DAFF2060FFF7D3
:102DC00057FC10BD2005002000000000000000009E
:102DD00010B5044C23681840FFF7CAFF2060FFF7C6
:102DE00047FC10BD2005002000000000000000008E
:102DF00010B5044C23685840FFF7BAFF2060FFF776
:102E000037FC10BD2005002000000000000000007D
:102E10007047C046000000000000000000000000F5
:102E200010B5FFF7F5FF10BD000000000000000026
:102E300010B5FFF7F5FF024B1860FFF719FC10BD46
:102E40002405002000000000000000000000000039
:102E500010B50020FFF7E4FF024B1860FFF708FCF5
:102E600010BDC04624050020000000000000000046
:102E70000123834010B51800FFF7D2FF024B186002
:102E8000FFF7F6FB10BDC04624050020000000003F
:102E900001238340180010B5044C23681843FFF742
:102EA000BFFF2060FFF7E4FB10BDC04624050020F3
:102EB0000123834010B5044C20689843FFF7B0FF0E
:102EC0002060FFF7D5FB10BD2405002000000000A6
:102ED00001238340180010B5044C23685840FFF7C5
:102EE0009FFF2060FFF7C4FB10BDC04624050020F3
:102EF00010B5044C23681843FFF792FF2060FFF7DA
:102F0000B7FB10BD240500200000000000000000F9
:102F100010B5044C23681840FFF782FF2060FFF7CC
:102F2000A7FB10BD240500200000000000000000E9
:102F300010B5044C23685840FFF772FF2060FFF77C
:102F400097FB10BD240500200000000000000000D9
:102F50007047C046000000000000000000000000B4
:102F600070B5020482B0120E01AB041C1880D000B0
:102F7000801A0722012540000019C3B21040854085
:102F800000240126D80883001B180948EDB2C01898
:102F90000B00E340027833405B4253402B405340E8
:102FA000013403700130052CF2D102B070BDC0466F
:102FB00028050020000000000000000000000000C4
:102FC00030B5010483B001AB090E1880CB00591A4B
:102FD000490009180720CCB2002201400125002039
:102FE000E408A3001B19064CE418A35CCB402B405B
:102FF000934001321843C0B2052AF6D103B030BD68
:103000002805002000000000000000000000000073
:10301000F0B5C64600B5114B82B01D68104B01AF2C
:103020001B681F24012638801D4301E0013C11D399
:103030002B00E3401E42F9D0E3B2180039689846ED
:10304000FDF7E6FF80B20128F0D0404602B004BC94
:103050009046F0BD00239846F7E7C04624050020BF
:10306000200500200000000000000000000000001B
:10307000F0B52B4A85B0127801AB0E041980CCB2A2
:10308000360E002A41D100281CD10723002200203F
:103090000125F100891B49006118CCB2E4081940F0
:1030A000A3001B191F4CE418A35CCB402B4093409A
:1030B00001321843C0B2052AF6D10199FDF7A8FFE5
:1030C00005B0F0BD1868FFF7A3FFF3009E1B760064
:1030D000A4190726E1B23440063EA64005000024AC
:1030E0000127C9088B005B180E49F6B2C9182A00DF
:1030F000E2400B783A4052425A4032405A40013442
:103100000A700131052CF2D1D7E703AB1C705E7059
:103110000398FFF77DFF0399FDF77AFFD0E7C046DC
:10312000D20400202805002000000000000000005C
:1031300000B583B001AB18800198FFF769FF0199D2
:10314000FDF766FF03B000BD0000000000000000B6
:103150000020024B1856C010C0B2704779050020FD
:103160000720024B1B7818407047C04679050020A5
:103170000720034B1B781840431E9841C0B270478C
:1031800079050020000000000000000000000000A1
:10319000014B18787047C0467B05002000000000F6
:1031A000024B1A78104318707047C0467B05002008
:1031B000024A1378834313707047C0467B05002092
:1031C0000022014B1A7070477B05002000000000B0
:1031D000024B1A78104318707047C0467C050020D7
:1031E000024A1378834313707047C0467C05002061
:1031F0000022014B1A7070477C050020000000007F
:10320000024B1A78104318707047C04678050020AA
:10321000024A1378834313707047C0467805002034
:103220000022014B1A707047780500200000000052
:10323000014B18787047C0467A0500200000000056
:103240007047C046000000000000000000000000C1
:1032500010B5FFF7F5FF10BD0000000000000000F2
:1032600010B5044B1A78824202D01870FFF7F0FFB5
:1032700010BDC0467A0500200000000000000000DC
:1032800070B5114B114A1B781278114C1343114A37
:10329000114D1278206813432A780370002A02D156
:1032A000FEF76EFD70BD1343037000F021F9002896
:1032B00007D02B78002B04D0002300202B70FFF7C1
:1032C000C7FF2068ECE7C0467B0500207C05002096
:1032D00090030020780500207A05002000000000FF
:1032E00010B5054B1A78002A00D110BD002200202D
:1032F0001A70FFF7ADFFF8E77A0500200000000024
:103300007047C04600000000000000000000000000
:1033100010B5FFF7F5FF10BD000000000000000031
:1033200010B5C300054C0B432370FFF7B1FD00201F
:103330002056C010C0B2FFF7EBFF10BD790500208A
:10334000002370B50B4CE3561A00824350B207229B
:10335000150020700540024202D1DBB2834200D149
:1033600070BDC010C0B2FFF7A3FD00202570FFF7AD
:10337000CFFFF5E779050020000000000000000005
:1033800010B500211320FEF7C3F810BD00000000A7
:1033900010B500210F20FEF7BBF8FFF7F1FF10BDBD
:1033A00010B500202049FEF7ABF800210220FEF7FF
:1033B0009FF800210320FEF79BF800221B4B002101
:1033C00004201A60FEF794F800212120FEF790F8FF
:1033D00000210520FEF78CF800210620FEF788F872
:1033E000FF210720FEF784F800210820FEF790F85F
:1033F00000210D20FEF77CF800211820FEF788F848
:1034000000211720FEF774F800211C20FEF780F839
:1034100000212020FEF76CF800211820FEF778F834
:10342000FFF7B6FF10BDC046ECFE000020050020EF
:1034300010B5FFF7B5FF10BD000000000000000050
:1034400010B50020FEF714F8034B9C46604443423D
:103450005841C0B210BDC0461401FFFF000000007B
:1034600010B50220FDF7FCFF10BDC04600000000B3
:1034700010B50320FDF7F4FF10BDC04600000000AA
:1034800010B50420FDF7ECFF04002120FDF7E8FF54
:103490000002204380B210BD0000000000000000C8
:1034A00010B50400C1B20420FEF722F82120210A41
:1034B000FEF71EF810BDC04600000000000000002E
:1034C00010B50620FDF7CCFF10BDC046000000007F
:1034D00010B501000620FEF70BF810BD000000003B
:1034E00010B501000E20FEF703F810BD000000002B
:1034F0000B4B1A780523002A03D00A4A12787F2A38
:103500000CD8821C00201178002901D00130C0B2F3
:10351000013BDBB20132FF2BF5D170471833F0E7E6
:10352000940300208C050020000000000000000033
:10353000020000290CD0124B1B78002B0AD1931CDF
:10354000083210001A788A4218D001338342F9D128
:10355000002070470B4B1B787F2BF0D90020CB0845
:10356000EF29F6D807300140063888400100D2180C
:1035700090780840431E9841C0B2EAE70120E8E78E
:10358000940300208C0500200000000000000000D3
:1035900030B51A4B1B78002B03D0194B1B787F2BAF
:1035A0001FD8012400236442C2189278914208D0A7
:1035B000651C07D00133DAB25BB2062AF4D10019D8
:1035C000817030BD002A0AD00133DAB25BB2062A1C
:1035D000F7D0C21892789142F3D0002AF4D11C009F
:1035E000E8E7CB08EF29ECD8C01807231940063BC1
:1035F0008B40827813438370E3E7C0469403002036
:103600008C05002000000000000000000000000009
:1036100010B50F4B1B78002B03D00E4B1B787F2B64
:103620000AD80024831C08301A788A4200D11C7002
:1036300001338342F8D110BDCB08EF29FBD8C01865
:103640000723012219408A40837893438370F2E76D
:10365000940300208C050020000000000000000002
:1036600010B5094B02301B78002B03D0074B1B7899
:103670007F2B04D806220021FDF718F910BD1E2269
:103680000021FDF713F9F9E7940300208C050020D1
:103690007047C0460000000000000000000000006D
:1036A00010B5FFF7F5FF10BD00000000000000009E
:1036B00010B50020FDF7FCFF0020FDF771FCFFF7BF
:1036C000EFFFAA2000F01CFE10BDC0460000000065
:1036D0007047C0460000000000000000000000002D
:1036E0007047C0460000000000000000000000001D
:1036F00010B5FFF7EDFF0024FDF702FAFFF7F0FF2A
:103700002000FDF74DF9002804D10134E4B2052C66
:10371000F6D110BD0120FCE7000000000000000011
:103720007047C046000000000000000000000000DC
:1037300010B5FFF7F5FF10BD00000000000000000D
:1037400010B5FFF73DFDFFF753FD064B1868FFF777
:1037500087FFFDF7B5FFFEF703FBFDF721FCFFF741
:10376000E7FF10BD900300200000000000000000F3
:1037700072B6054B1B8D9BB262B6044A13600022E1
:10378000034B1A607047C046D00600208405002015
:10379000880500200000000000000000000000007C
:1037A00010B572B60D4B188D80B262B6FA220023A6
:1037B00092000021FCF70AFF0023094A80185941B2
:1037C0000023084AFCF7E2FE0749084A0B68146820
:1037D00010601B1B1B1898B20B6010BDD006002098
:1037E0000F27000010270000880500208405002016
:1037F00070B5040072B60E4B188D80B262B6FA2214
:10380000002392000021FCF7E1FE0023094A801802
:1038100059410023084AFCF7B9FE0849084A0B68D9
:10382000156810605B1B1B18181B80B20B6070BD05
:10383000D00600200F270000102700008805002078
:1038400084050020000000000000000000000000CF
:10385000054B064A1A60BFF34F8F054B054ADA60E5
:10386000BFF34F8FC046FDE7FC070020EFBEADDE83
:1038700000ED00E00400FA05000000000000000078
:1038800010B5FFF7DDFD002810D0FFF7E9FD094B6B
:103890001870FFF7F5FD084B1880FFF7E9FDFFF7FB
:1038A00077FA064B1868FFF7BBFA10BDFFF7C0FDAB
:1038B000EBE7C046800500208C0500202405002091
:1038C00072B662B67047C0460000000000000000FB
:1038D0007047C0460000000000000000000000002B
:1038E00070B50C001900240200232000064D10437F
:1038F0006B602B1D1A0000F053FA286068680028DE
:1039000000D0280070BDC0469005002000000000D7
:103910005623C35C022B04D0074B1A78074B1A704E
:1039200070470421044A13788B43012BF8D1527855
:10393000024B1A70F4E7C046E8050020C4050020D9
:1039400010B50400022904D0052901D1FFF7F8FEC3
:1039500010BD72B60121054A00F08AFD0221200047
:10396000034A00F085FD62B6F2E7C046145C000031
:10397000385C0000000000000000000000000000B3
:103980007047C0460000000000000000000000007A
:1039900070B5040072B60378042B2AD11A4B1B7839
:1039A000DB0926D1194D2878002822D0184B1B7826
:1039B000002B1ED023899B071DD50023154A00210B
:1039C000FCF704FE0023144A80185941FA22002310
:1039D0009200FCF7DBFD114E8500F368002B02D04E
:1039E000300000F0EDFA2300290030000C4A00F00E
:1039F000C7FA62B670BD200008230121094A00F011
:103A00007FFD2878D9E7C0468C050020AC05002052
:103A10009403002010270000E7030000B0050020F9
:103A200091390000C80500200000000000000000DF
:103A30007F225023110070B5C35C04001940212976
:103A40001ED05022534BA25A9A4201D0002070BD82
:103A50005523E25C013BE35C1202532113435222E3
:103A60006068A25C4568615C2000A8470028EDD032
:103A70004368636403680120A3640023E364E6E70A
:103A80005BB2002B12DA5123C35C022B69D0032BEB
:103A900020D0012BD5D15333C35C002B5BD13E4AE0
:103AA000C3644264202282640120D0E75123C35CB6
:103AB0000A2B5ED00B2B18D0092BC2D14B33C35C21
:103AC000012BBED8354B436402238364344BC3645B
:103AD0000120BCE75423C35A002BB2D1314AC3643E
:103AE0004264012282640120B1E75423C35A002BAF
:103AF00031D15233C15C0B00581E83412948DBB2DF
:103B000003702948DB0105782A401A430270002916
:103B100021D1264B1A78002A1DD072B618780023BE
:103B2000234AFCF753FD0023224A80185941FA2208
:103B300000239200FCF72AFD1F4D8600EB68002B46
:103B400002D0280000F03CFA2300310028001B4A74
:103B500000F016FA62B6002301206364A364E364F4
:103B600075E7124B4364012383640023C36401207F
:103B70006DE75323C25C0C4B0C491B780A70DB09C0
:103B8000E9D1002AE7D072B600230878084A00215C
:103B9000C7E7C04681060000C8050020E8050020F0
:103BA00011390000940300208C050020AC05002092
:103BB00010270000E7030000B00500209139000045
:103BC00010B50400054800F09BFB2000044900F0FC
:103BD00017FC0022034BDA6010BDC046983A000083
:103BE0005C5C0000B0050020000000000000000048
:103BF00010B5040000F014FC2000024900F000FCA5
:103C000010BDC0465C5C0000000000000000000029
:103C1000014B18787047C046C40500200000000022
:103C200070B5040072B61D4D2B78042B11D11C4ABF
:103C300012787F2A0FD82B899B0724D408232200CF
:103C40000121280000F05CFC202221001548FCF72F
:103C5000DBFD62B670BD144A1278002AEBD02A89C7
:103C6000134209D001216B69494258690C3000F0B8
:103C70004FFB2B78042BECD12023220002212800BB
:103C800000F03EFCE0E701212B69494258690C3005
:103C900000F03EFB2B78042BDBD1CFE73C07002064
:103CA0008C050020C80500209403002000000000BF
:103CB0007047C04600000000000000000000000047
:103CC0007047C04600000000000000000000000037
:103CD0007047C04600000000000000000000000027
:103CE0007047C04600000000000000000000000017
:103CF0007047C04600000000000000000000000007
:103D00007047C046000000000000000000000000F6
:103D100010B5FFF7E5FF01F053FDFFF7E9FF10BD18
:103D200010B501F07DFDFFF7EBFF10BD00000000B6
:103D300010B500F035FB00F0C3F8FEF799F8154C0C
:103D40002000FFF73DFFFA20400000F0D9FAFEF70F
:103D5000B7F81148FDF7FCFF05E0FEF7C9F8FEF7DC
:103D60009FF8FEF7A5F82378052BF6D1FFF7A0FC06
:103D7000FFF7BEFC002805D12378052BF6D0FFF70E
:103D80007FFAEAE7200000F0D3FB2000FFF730FFC6
:103D9000F2E7C0463C070020980300200000000026
:103DA00010B5030A222B03D8164C9B00E3589F46FC
:103DB00000200023136010BD002919D00129F7D17C
:103DC0003B20114BF6E73B20104BF3E7C0B2022833
:103DD000EED80F4B8100CB580E494000405AE9E71E
:103DE000002908D00129E3D1084B09202B33E1E752
:103DF0004020094BDEE7054B09201233DAE7122099
:103E0000064BD7E76C5C0000C85D00000C5D00004D
:103E1000F85C0000045D00005C5D0000485D00008F
:103E20007047C046000000000000000000000000D5
:103E30007047C046000000000000000000000000C5
:103E4000FEE7C04600000000000000000000000087
:103E500080229446F0B50025104E114C1149124BAA
:103E60001248B44499420DD91A0080C880C29142C8
:103E7000FBD80139C91A8908013189005B189C42B5
:103E800002D920C39C42FCD81036664504D0306865
:103E90007368B168F468E5E7F0BDC046045E0000F1
:103EA000E0070020E0070020E00700208C60000011
:103EB000FEE7C04600000000000000000000000017
:103EC00010B500F0C5F800F04BF80A4C8022200035
:103ED000094900F08DF90123084A0377136A08495C
:103EE000303C0B40A061136262B6064800F0D0F986
:103EF00010BDC04600070020A45E000000ED00E0F9
:103F0000FFFF00FF8C5E00000000000000000000CA
:103F100070B50F4C2500238D1C3501339BB22385D2
:103F2000E369AB4212D09A68501E986000280DD108
:103F300000261A68D968DE605560E26162B61869C9
:103F4000884772B6E3699A68002AF2D070BDC0460D
:103F5000D00600200000000000000000000000006B
:103F6000054B1A001C32DA611A62012252425A626F
:103F700000221A857047C046D006002000000000CD
:103F800010B50C4C0361E369C2609A68914204D990
:103F90001B68891A9A688A42FAD35A680360426099
:103FA0001060586081609A68511A996001235B42E1
:103FB000636210BDD0060020000000000000000079
:103FC000816803688C469A6862449A60426813600C
:103FD00003685A6000230122C360024B52425A62B6
:103FE0007047C046D006002000000000000000001E
:103FF00072B6037F042B1FD018D8002B14D0032BCC
:1040000002D10022036A1A6001235B42036200238B
:10401000826803770B4B1B6899689142FBD25A6800
:10402000036042601060586062B67047052BEBD1A8
:10403000026A9368013393604268036813605A60B0
:10404000E2E7C046D00600200000000000000000AB
:104050000022034B1B605B609A601B615B617047D1
:10406000D00600200000000000000000000000005A
:104070000300006802681A607047C0460000000034
:10408000002382680377054B1B6899689142FBD235
:104090005A6803604260106058607047D006002084
:1040A000064B10B5996908771868026853601A6062
:1040B000986101230377FCF7D3F810BDD0060020E8
:1040C00030B5040087B04B1C12D00B4D0B4AAB69C6
:1040D00001A8FFF755FF2000FFF7E2FF049B002B2C
:1040E00002D001A8FFF76CFFAB69186A07B030BDBA
:1040F000FFF7D6FF004DF7E7D0060020F13F0000A4
:10410000134B70B59D698268AC680162A2420BD8FE
:10411000002101771B6899688A42FBD95A680360BD
:1041200042601060586070BD00222A771A00126841
:1041300091688C42FBD351682A6069600D605560BC
:104140009861012329000377FCF78AF8EBE7C04662
:10415000D006002000000000000000000000000069
:10416000044B9A69196890688B6898428041404274
:104170007047C046D006002000000000000000008C
:104180000C4B10B5186899690268002453601A60D6
:10419000012202778A6898610C771B689C68A242AA
:1041A000FBD35A680B604A6011605960FCF758F8FD
:1041B00010BDC046D0060020000000000000000036
:1041C000054B10B51A689B6992689B689A4200D8A3
:1041D00010BDFFF7D5FFFBE7D00600200000000070
:1041E00010B5FFF7CDFF10BD00000000000000007B
:1041F00000234363036302338383013B8377084BCC
:10420000826082635A690361426181611061586111
:1042100003002433436204338362C3627047C046A1
:10422000D006002000000000000000000000000098
:10423000836802001900180010B514694038643909
:10424000C1600C6154694C610D4C0C621468D168FA
:1042500002220277002242774263026301328277B0
:10426000084A81608163516902618461416108612A
:1042700050611A00183B1C3A12601B605B6010BD55
:1042800081020000D00600200000000000000000B5
:1042900010B572B6FFF7CCFF00210400FFF730FF26
:1042A00062B6200010BDC046000000000000000003
:1042B0000D4B70B59D692C006B6A243428629C42BA
:1042C00007D02000FFF7D4FEFFF7DAFE6B6AA342A7
:1042D000F7D1AB7F002B03D16A692B6913615A6157
:1042E0000F20FFF7DDFE70BDD006002000000000AB
:1042F00010B572B6FFF7DCFF10BDC046000000002D
:1043000010B5010072B60820FFF7DAFE62B610BDE4
:10431000064B10B59B69002905D003601862032085
:10432000FFF7CEFE10BD01204042FBE7D006002083
:104330000300006810B5002804D000221A60016252
:10434000FFF79EFE10BDC046000000000000000008
:10435000EFF30983203383F3098862B67047C046C0
:1043600010B50F300ED072B6EFF30984203C84F301
:10437000098880235B04E361FFF7F2FE002802D086
:10438000024BA36110BD024BA361FBE78D0200004D
:10439000900200000000000000000000000000008B
:1043A00010B500F005FC054800F00AFC00F010F81C
:1043B000FFF7B6FC00F004F810BDC046B85F00007F
:1043C00010B501F0DDF910BD000000000000000094
:1043D00010B500F035FF10BD000000000000000027
:1043E0000123037000230362036343624363836218
:1043F0008363C362C363436083607047000000004F
:1044000010B5040072B600234160C36003614361CC
:104410008361C36100F01CFF0223237062B610BDEC
:1044200070B5050072B600F02BFF00232C000026AB
:104430006B6001332B700C3420352368002B10D0B7
:104440005869002805D002210C304942FFF770FF5F
:1044500023689869002804D002210C304942FFF7F4
:1044600067FF40C4AC42E8D1FFF7AAFE62B670BD58
:104470008B1C9B0070B5C318050050690E0014001A
:104480005A60002803D014220021FCF70FFAA0691B
:10449000002803D014220021FCF708FA310028007C
:1044A00000F006FF70BDC0460000000000000000E4
:1044B000F8B5040007000500002682680F4B103491
:1044C0001340836020372368002B10D058690028E0
:1044D00005D002210C304942FFF72AFF2368986972
:1044E000002804D002210C304942FFF721FF40C4CC
:1044F000BC42E8D1280000F06BFFF8BD01000100CC
:1045000070B501258D4004892C4304818C1CA400C6
:1045100004196468646923600023A2606360E36037
:1045200000F0AEFF70BDC0460000000000000000BB
:104530007047C046000000000000000000000000BE
:10454000F8B50223040007000370002305000026CD
:10455000836583600C3420372368002B13D072B638
:1045600022685069002805D002210C304942FFF72B
:10457000DFFE22689069002804D002210C304942F5
:10458000FFF7D6FE62B640C4BC42E5D14023280006
:10459000EE5400F07DFE6B681B68002B02D00021FA
:1045A00028009847F8BDC046000000000000000049
:1045B0005C23027870B5C254573B03704368050012
:1045C0001B68002B01D0042198472C0020350C34A7
:1045D0002368002B13D072B623685869002805D0D1
:1045E00002210C304942FFF7A3FE23689869002896
:1045F00004D002210C304942FFF79AFE62B604341F
:10460000AC42E5D170BDC0460000000000000000D3
:104610005C23C35C10B5037043681B68002B01D09A
:104620000521984710BDC0460000000000000000B2
:10463000F8B54023C25C0400002A01D00022C25415
:1046400022002000503200F0F3FE63689B68002BCC
:104650002ED02000984700282AD05023A56CE35C78
:104660005722A15C013AA25C09020A43AA4201D284
:104670001500A2645BB2002B00DADCE0002D00D153
:1046800092E040231522E25472B601216389A26CA4
:104690000B436381E368616C9B6920001A60002210
:1046A00099605A600021DA6000F0CAFE62B637E015
:1046B000602250261700A35D1F401A421ED15122CE
:1046C000A55C2E321A402D021543B54A954200D101
:1046D00049E143D880225200954200D1FFE020D921
:1046E00081225200954200D107E1FF32FF3295420C
:1046F00004D15222A25C012A00D1D5E00021200081
:1047000000F0F6FE0021200000F0EAFE63681B685E
:10471000002B02D006212000984740230622E254B5
:10472000F8BD012D5CD0022D4CD154230F21E25C49
:10473000E35620001140002B00DAAAE000F070FEE2
:10474000012800D1AAE00228D8D1964B6364022345
:10475000A3640023E3645033E35C81E78022120109
:10476000954200D1F7E043D990221201954233D10E
:104770002378042B00D1A0E05223E35C002B0AD065
:104780005B22A3540423237063681B68002B02D0B0
:1047900002212000984700236364A364E36450333C
:1047A000E35C5BB2002B5FDB40230B22E25472B66A
:1047B00001222389134300222381E3685B699A6005
:1047C0001A6049E0002D99D1220058326264022219
:1047D000E564A264022543E7734A954200D08DE761
:1047E000724A022562640222A2640022E26437E770
:1047F000A022D200954200D197E06D4B9C466544C3
:10480000012D00D97AE75523E25C013BE35C1202FB
:104810005321134352226068A25C4568615C20000A
:10482000A847002800D169E7436805686364A56468
:10483000E764A35D14E7002D16D040230922E2545B
:1048400072B601212389A26C0B432381E368616C5A
:104850005B691A6000229960002120005A60DA60CA
:1048600000F00EFE62B65BE740231422E25472B6FB
:10487000012263890021134300226381E368200041
:104880009B699A601A605A60DA6000F0D9FD62B6DE
:1048900046E700F0ADFD012800D054E7454BA56484
:1048A0006364E764A35DDBE658210220625A024399
:1048B00062526764A764E76473E772B62000FFF78B
:1048C000F7FD62B65B23E754583B237063681B68AF
:1048D000002B00D150E70321200098474CE75222DB
:1048E000A25C012A00D009E758210220625A8243C3
:1048F00062526764A764E76453E75222A25C002A0D
:1049000000D0FBE60F2001005432A25C114010429F
:1049100006D052B22000002A39DB00F0F1FDA35D81
:1049200000226264A264E2643BE7A25BAA42F7D180
:104930005223E25C0833E254200000F0B1FC6368CB
:104940001B68002B02D0012120009847032323700D
:104950004D33E35CE4E722005B326264012201250F
:10496000A264E7647CE65222A25C002A00D0C5E67D
:104970000F2001005432A25C11401042D0D052B23C
:104980002000002A07DB00F0ABFDA35DC8E700F0C4
:10499000BFFDA35DC4E700F0ABFDA35DC0E7C0466B
:1049A000020300006C5F0000020C0000745F000056
:1049B00000FAFFFF705F0000000000000000000030
:1049C000402310B5C35C0400152B14D82A4A9B0061
:1049D000D3589F46002100F08BFD0021200000F0FD
:1049E0007FFD63681B68002B02D0062120009847DA
:1049F00040230622E25410BD5723E25C013BE35CF6
:104A0000806C12021343984205D2E368198AFBF7BF
:104A1000CDFC00291CD040231422E25472B601229E
:104A200063890021134300226381E36820009B69AE
:104A30009A601A605A60DA6000F002FD62B6DAE746
:104A4000C36C002B00D0984740230022E254D2E7E9
:104A500072B601222389200013432381E3685B6936
:104A6000996019605960D96000F00AFD62B6402370
:104A70000A22E254BFE7C046BC5E0000000000000E
:104A8000402310B5C35C0400152B0FD81B4A9B00B4
:104A9000D3589F46C3689B695B68002B06D1C36CE3
:104AA000002B00D0984740230022E25410BD002183
:104AB00000F01EFD0021200000F012FD63681B685D
:104AC000002B02D006212000984740230622E25402
:104AD000ECE740230B22C25472B601220389002165
:104AE000134300220381C3685B699A601A605A60AD
:104AF000DA6000F0C5FC62B6D8E7C046145F00007B
:104B00000F4A70B594460322FF25C0260240D2000A
:104B100095408901914083089B006344B6009C59ED
:104B20001F22AC430C439C51012302409340C022FE
:104B300040098000604452008350036070BDC0464D
:104B400000E100E0000000000000000000000000A4
:104B50000F2310B50340040003202040FF24074A20
:104B6000C0009446844089018140083B9B089B001B
:104B70006344DA69A2430A43DA6110BD00ED00E044
:104B80007047C04600000000000000000000000068
:104B90007047C04600000000000000000000000058
:104BA0007047C04600000000000000000000000048
:104BB0007047C04600000000000000000000000038
:104BC00002680F4B1A6042685A6082689A60C26A33
:104BD0000C4B1A60026B5A60426B9A60826D0A4BF2
:104BE0001A60C26D5A60026E9A608423C258074BE5
:104BF00084301A6042685A6082689A607047C04682
:104C000000400440006004400080044000A00440D4
:104C1000062A0ED80D4B92009B589F4601228A40CF
:104C200043684900934303228A4043608368934367
:104C30008360704701238B40426813434360F8E769
:104C400001228A40436893434360F2E7785F0000A3
:104C5000F0B54F46D6464646C0B59946214B800032
:104C6000C35888469A461700002382B0002A33D0E2
:104C70001D4C1D1D0426BD4201D93D00FE1A4A46A9
:104C80005344002A13D0A367022280238021E250DC
:104C900063581A42FCD1E36F4046320001A90193E8
:104CA000B044FBF7B1FDBD4216D02B00E1E78422F2
:104CB000A3508C23823AE2508A328A3BA0580342A6
:104CC000FCD18823E3584046320001A90193B04447
:104CD000FBF79AFDBD42E8D102B01CBC9046994654
:104CE000A246F0BDCC07002000C005400000000037
:104CF000F0B55746DE464E4645469946224B800063
:104D0000C358E0B59A460023884617009B4683B0F7
:104D1000002A32D01D4C5B461D1D0426BD4201D920
:104D20003D00FE1A3200414601A8FBF76DFD4B46DF
:104D3000002B10D05B465344A367019B0122E3671D
:104D400080238021E25063581A42FCD1B044BD4216
:104D500013D0AB46DFE75B4684225344A35088233D
:104D6000019AE25001220433E2508B328B3BA0586F
:104D70000342FCD1B044BD42EBD103B03CBC9046F1
:104D80009946A246AB46F0BDCC07002000C00540C6
:104D9000F0B5DE46574645464E46E0B5C54FC64BD4
:104DA0007C68754683B0BB60002C46D0630F5A0701
:104DB000002B12D0002C00DA9DE08023DB051C4282
:104DC00000D093E08026B605344226D000F080FC67
:104DD000BA48BE60FFF71CFC1FE0F8231B041C420E
:104DE00037D0B64E2100F368984680231B04194043
:104DF0001C4200D1B6E0CC235B04BB6043465B6938
:104E000000215A601A601A6143469B6930005A605B
:104E10001A601A8243465B6898478023DB041C4271
:104E20000DD0A44A1168490009D5A448936043688D
:104E3000DB68002B03D0984701E000F049FC280014
:104E4000FFF78EFA03B03CBC90469946A246AB46AB
:104E5000F0BDF0231B011C4255D080235B001C4297
:104E600000D0DBE080239B001C4200D12AE102221B
:104E7000BB603B699346396A02279B07DB0FC9B2C7
:104E8000BA1C8E4E01929200B21852689046002BC6
:104E900000D1CCE0508A0200884200D30A00434689
:104EA0009B699A461B689946934200D353E14A4650
:104EB0005346002A00D086E15246514692684A4441
:104EC0008A605A684A445A601A8A002A00D1CCE0A3
:104ED000013A92B21A82814500D2C6E0002A00D17E
:104EE000C3E00021584600F0A3FB96E77348BB607F
:104EF000FFF75EFB91E700F0EBFB00F009FC6F4869
:104F0000FFF71EFB89E7230700D186E70122002374
:104F1000224202D0BA603B6913400222012722429A
:104F200005D0644B9A601B695B083B400137042243
:104F3000224205D003275F4B9A601B695B07DB0F9A
:104F400008223800224206D004200427594B9A60D8
:104F50001B691B07DB0F002B00D1C1E0002100F013
:104F600067FB5AE78023DB031C422FD18022920388
:104F7000144200D194E043469B69BA604246BF693F
:104F8000518AFF05FF0D8F4200D90F001A68914624
:104F9000974200D826E1002A00D03CE19A684A44B2
:104FA0009A605A684A445A601A8A002A00D1B0E0CE
:104FB000013A92B21A82894500D2AAE0002A00D1B1
:104FC000A7E00021002000F033FB26E742465269AB
:104FD000BB603B4B91461A68002A00D0E1E04B468B
:104FE0004A4619695B68CB1853601268D01A9A4216
:104FF00000D0C0E00122338993433381F3689B687A
:10500000002B02D000213000984772B6F36858692F
:1050100000210C30FFF78CF962B6FEE60122BB607E
:105020003B69F969934601271340C9B228E75269E1
:10503000536811691068CB18C01A84461068536011
:10504000984200D073E00122BA4033899343338100
:1050500043469B68002B02D059463000984772B6F1
:105060000237BF00F6197368D1E70122BA4073898D
:1050700093437381019B9B00F3185B68DB68002BF3
:1050800002D059463000984772B6019B9B00F61833
:105090007368986941680C30FFF74AF962B6BCE65C
:1050A000C0267603344200D1B7E6002000F0D0FAE3
:1050B000BE60B2E600C00540FFFFFBFE3C070020DB
:1050C000A00700208023DB001C4270D00322BB60BD
:1050D0003B69796A5B0703279346DB0FC9B2CFE6CA
:1050E00000F096FA0122BA40524E3389934333813D
:1050F000BB1C98469B00F3185B689B68002B02D092
:1051000039003000984772B643469B00F618736822
:105110007DE70122738993437381F368DB68002B79
:1051200002D000213000984772B6F368B1E74346D9
:105130001E8A664500D96646936858469C46614477
:105140009160166101233200FFF7D2FD5846F1B29B
:1051500000F06EFA61E65046914681680123584698
:10516000FFF776FD434649469B691868421A1A6064
:105170004246508AA0E643461E8A864200D906006F
:105180004B469B6832009C464B46614499601E61C9
:1051900000200123FFF7ACFD0020F1B200F048FA37
:1051A0003BE6FA600020196000F052FA17E780230E
:1051B0001B011C4225D11F4E0127336998465A69AD
:1051C00001239B4634E75146012358468968FFF77F
:1051D0003FFD434649469B691A68521A1A60424687
:1051E000508A69E699683A0001230020FFF730FDF4
:1051F00043469B69B9461A68D21B1A604246518AD7
:10520000CCE60422BB603B69B96A1B0704279346BE
:10521000DB0FC9B234E6996800200123FFF718FDBF
:10522000434649469B691A68521A1A604246518A97
:10523000B4E6C0463C07002000000000000000006B
:1052400010B50248FFF7CCF810BDC0463C0700205F
:10525000037810B5012B00D010BD054B9842FBD14F
:1052600000F05EF90E210120FFF74AFCF4E7C0468A
:105270003C070020000000000000000000000000CB
:105280007047C04600000000000000000000000061
:10529000014BC3607047C046945F000000000000EF
:1052A0005A23C25C014B1A607047C046A007002019
:1052B0008B1C9B00C01843685A69002A38D0032908
:1052C00065D017D801293CD0022900D073E03C48B2
:1052D0009B6902698A430261002B04D00221384A8B
:1052E00013690B4313618023354A1B06116A0B4374
:1052F00013627047042913D1082031499B690A6958
:1053000082430A61002B04D008212D4A13690B4304
:10531000136180232A4A1B06916A0B439362E8E7D4
:105320009B69002BE5D103292CD90429F1D0E0E7B2
:105330009B69002B18D00229D0D01ED8012907D094
:10534000D7E71F489B6902698A430261002B04D09A
:1053500001211B4A13690B4313618023184A1B0662
:10536000D1690B43D361C4E70329DCD18023144AFC
:105370001B06516A0B435362BBE703290FD0042974
:10538000C2D0B6E70129E8D00229ACD0B1E70420A9
:105390000B499B690A6982430A61002BE6D004210C
:1053A000074A13690B4313618023054A1B06516AA0
:1053B0000B4353629DE79B69002BBCD199E7C04624
:1053C00000C00540000000000000000000000000D8
:1053D00010B5012000F00CF9022000F009F90320BB
:1053E00000F006F9042000F003F910BD00000000F1
:1053F00010B50C00042901D9002010BD080000F0F0
:105400003FF90028F8D0200000F04AF94342584103
:105410000130F2E700000000000000000000000082
:1054200010B5FFF7E5FF10BD000000000000000010
:1054300010B50800002311000822FFF709FC10BD79
:105440008B1C9B00C018426870B595690C002868D9
:105450000123002805D0518A40180138FAF720FFAF
:1054600083B22B82002300216B60200000F0E0F863
:1054700070BDC046000000000000000000000000F9
:1054800070B58D004519EA680C0053691968002948
:1054900014D1002C12D00121A14003898B43038138
:1054A0009368002B01D02100984772B6EB68002169
:1054B00058690C30FEF73CFF62B60DE0158A8D424C
:1054C0000BD8996820001D612A000023FFF710FC0B
:1054D0002000E9B200F0ACF870BD0D00F1E7C04665
:1054E00010B5080000F0B4F810BDC0460000000080
:1054F00010B5080000F0ACF810BDC0460000000078
:10550000080010B5042901D800F082F810BDC0468B
:1055100010B5FFF7F5FF10BD00000000000000000F
:1055200070B5FFF735FBFFF73BFB1021224A8024C3
:105530001368C0200B431360402200251F4BD0315D
:105540001A601F4B1C601F4B18601F4B19601F4BCC
:105550001D605A609C60D86019611D4BDF391A606C
:105560005A609A60203ADA601A611A4B1A4ABC38BB
:105570001A601A680A431A600222196811431960F6
:1055800019680143196019680430014319608021CA
:105590001868C9050143C0201960104940000A502D
:1055A0000A605A61F82212061A61802212065A66AF
:1055B0000B4ADA6670BDC04600E0054048C00540B1
:1055C0004CC0054050C0054054C00540CC070020E9
:1055D000B807002000C00540100000B000E100E066
:1055E0000440000000000000000000000000000077
:1055F000042805D8034B80009C46002360440360C8
:105600007047C04618C005400000000000000000C0
:10561000042806D8034B80009C46802360441B0668
:105620000360704718C00540000000000000000043
:10563000042807D8044B80009C46A0231B06604426
:10564000194301607047C04618C0054000000000C3
:10565000042808D8074A830094466344002803D0EE
:10566000E02212061A607047034A5268D201F7D549
:10567000F9E7C04618C0054000C005400000000022
:10568000042806D8044B80009C4660440068C00F84
:1056900070470020FCE7C04618C00540000000002D
:1056A00004280FD8084B80009C46C0236044006843
:1056B000DB051840A0231B069C466044434258412A
:1056C000C0B270470020FCE718C005400000000091
:1056D0000A4B10B51A680F231340052B01D0FFF7B2
:1056E00057FAFFF75DFA9022054BD20519690A4374
:1056F0001A61802292049A6010BDC04600200640C4
:1057000000C0054000000000000000000000000094
:1057100001220B4B52429A600022DA605B68DB0187
:1057200003D4E022074B12061A600023064A1360D6
:10573000064A1360064A1360064A13607047C04663
:1057400000C0054018C005401CC0054020C00540F1
:1057500024C0054028C005400000000000000000F3
:1057600010B5744672B6FEF7D3FB62B62000FEF7A2
:10577000F7FD10BD00000000000000000000000068
:10578000094B0A481B6910B518410949FAF712FE7E
:105790000022084B013858609A60073208210B201C
:1057A0001A60FFF7D5F910BD00000640006CDC025E
:1057B0001027000010E000E00000000000000000E2
:1057C00010B5FFF7DDF910BD00000000000000007B
:1057D00010B50B4C062204210A48FFF719FA0322E0
:1057E00000212000FFF714FA2368DB0703D4064BDF
:1057F000064A9D461047044B054A9D46104710BD7A
:105800000040044000800440C80600200900FF1F3B
:10581000017800000000000000000000000000000F
:105820002022012002498B5C03438B547047C04601
:04583000000006402E
:04583400F8B5C046BD
:04583800F8B5C046B9
:10583C000040044001400440024004400340044046
:10584C000440044005400440064004400740044026
:10585C0008400440094004400A4004400B40044006
:10586C000C40044000A0044001800440028004402D
:10587C0004A00440098004400A80044004800440D1
:10588C0005800440068004400780044008800440E2
:10589C00610D0000710D0000810D0000A10D0000D4
:1058AC0029001E001F0020002100220023002400DC
:1058BC002500260027002D002E002A002B001400A6
:1058CC001A000800150017001C0018000C0012002C
:1058DC0013002F00300031003900040016000700BF
:1058EC0009000A000B000D000E000F0033003400FD
:1058FC0000002800E1001D001B0006001900050037
:10590C001100100036003700380000000000E500E0
:10591C00E000E300E200000000002C0000000000AA
:10592C0000000000E6006500E400015135003A007B
:10593C003B003C003D003E003F0040004100420067
:10594C004300440045004C0001000100010001002F
:10595C000100010046004700480001000100BE5C48
:10596C00BF5CC05C005C0100010001000100010093
:10597C0049004A004B000100010001000100010038
:10598C000100010001000100010001004C004D006C
:10599C004E00010052000100010001000100010055
:1059AC0001000100010001000100010001000100E3
:1059BC00500051004F0001006E1200003612000022
:1059CC008E1200001A120000A612000036120000FF
:1059DC00C0120000CA120000DC120000E812000025
:1059EC00361200003612000036120000361200008B
:1059FC003612000036120000F412000036120000BD
:105A0C00361200003612000062120000361200003E
:105A1C00361200003612000056120000C2180000A8
:105A2C00CC180000D6180000DE180000B2180000D8
:105A3C00BA180000FC1900000E1A0000201A000011
:105A4C00EC190000EC190000EC190000EC19000036
:105A5C00EC190000EC190000EC190000EC19000026
:105A6C00EC190000EC190000EC190000EC19000016
:105A7C00EC190000EC190000EC190000EC19000006
:105A8C00EC190000EC190000EC190000EC190000F6
:105A9C00EC190000EC190000EC190000EC190000E6
:105AAC00EC190000321A0000441A0000561A0000CB
:105ABC00681A00006C1B0000601B0000541B0000E7
:105ACC00461B00003A1B0000101B0000781B000056
:105ADC00821B0000581C00004C1C0000401C0000E5
:105AEC00341C0000281C00001C1C00000A1C0000B8
