:020000040000FA
:1000000088160020716B0000756B00003906000037
:1000100000000000000000000000000000000000E0
:10002000000000000000000000000000796B0000EC
:1000300000000000000000007B6B0000C5660000AF
:100040007F6B00003D090000000000000000000080
:100050000000000000000000D94100000000000086
:1000600000000000000000007F6B000000000000A6
:100070007F6B00007F6B00007F6B00007F6B0000D8
:10008000FF6500000000000000000000000000000C
:100090000000000000000000000000000000000060
:1000A0007F6B0000996700007F6B0000000000007C
:1000B00031080000590800007F6B00007F6B0000D2
:1000C00000F002F800F032F80CA030C8083824180C
:1000D0002D18A246671EAB4654465D46AC4201D180
:1000E00000F024F87E460F3E0FCCB6460126334280
:1000F00000D0FB1AA246AB463343184714D5000084
:1001000034D500000023002400250026103A01D336
:1001100078C1FBD8520700D330C100D50B607047BF
:100120001FB506F0BBFD1FBD10B510BD06F06EFE7D
:100130001146FFF7F5FF00F0A6F906F086FE03B4BE
:10014000FFF7F2FF03BC06F08BFE000001480160E0
:1001500001480047240006400103FF1F30B40C494A
:100160000C684A6823681068C0181060241D121DAE
:100170008C4207D28A4208D20C604A6030BC4000F0
:10018000400870470C00DC3CF6E70A00DC3AF3E775
:100190002014002070B503F067FEF84801780029AC
:1001A00073D000240470F6490868002805D0401E6A
:1001B0000860002801D1F3480470F34A0121108837
:1001C0000225002812D0401E80B2108000280DD1D8
:1001D000EE485123037089234370ED480170ED4BC5
:1001E0001878002802D0401E18701580EA4A10883E
:1001F000002806D0401E80B21080002801D1E748B8
:100200000170E749086800283FD0401E08600028B8
:100210003BD104F0A6FA06F0ECF906F03AFAE1490F
:10022000086880229043086003F07AF903F0B1F97E
:1002300004F08FFBDC480168DC4A4908490011439F
:100240000160DB48046100F01BFB0AF00FFAD94E95
:1002500030690921C906884330610A2006F051FA45
:1002600000F0E4FC3461D448056030BF046000F065
:100270005FFB06F01FFA06F0ADFA06F0E8F903F0AE
:10028000C5F806F0C3F904F070FB70BD70B5BB484B
:10029000CA4D01780024002905D004702888002860
:1002A00001D0401E288003F07DFDC548006980070D
:1002B00031D5288800282ED1C82006F028FA04F06D
:1002C00048FB04F04EFA06F094F906F0E2F9B5485E
:1002D000016880229143016003F022F903F059F98B
:1002E000B1480168B14A4908490011430160B0486A
:1002F00004610AF0BBF904F044FA00F08CFB06F04C
:10030000D9F906F067FA06F0A2F903F07FF806F0D3
:100310007DF904F02AFBAB4D2878012806D108228C
:10032000A94900F095F9002800D12C70A74D287834
:10033000012807D11022A649022000F089F90028DF
:1003400000D12C70A34D2878012816D0A24D287812
:1003500001281BD0A14D2878012820D08C4D287869
:10036000002809D08949052008700422022000F0E5
:100370006FF9002800D12C7070BD0322984902202B
:1003800000F066F90028F7D12C7070BD0222954963
:10039000104600F05DF90028F7D12C7070BD0522E1
:1003A0009149022000F054F90028F7D12C708E48B2
:1003B0008470C470047170BD70B58C480024C1781D
:1003C000002900D0C470817800295BD084708849EE
:1003D0000888002810D0401E80B2088000280BD169
:1003E00084480078002802D0012803D004E003F0FC
:1003F00077FE01E003F0A5FE7F490878401CC0B2FB
:10040000087001250F280ED30C707C480078002856
:1004100009D07B480821017045708470014609228B
:10042000022000F015F977490878401CC0B2087026
:1004300032281CD30C705148057073490878002885
:1004400006D0401EC0B20870002801D16F48047069
:100450006F49088800280AD0401E80B20880002812
:1004600005D16C480078D22801D10CF0E6FD6A492C
:100470000888002806D0401E80B20880002801D1DC
:1004800001F060FA70BD06F0CEFB06F087FB634911
:100490000F200860624F386A01263043386200F04E
:1004A00078F9524D00242C71F003008A5D4988428E
:1004B00000D12E7106F0CBF806F0FCF805F054FAE6
:1004C00006F0B0F94B4E347004F04FFA287900284A
:1004D00005D00CF0CFFD05F09DF9347003E009F074
:1004E000D2FF04F01DFD01F081F906F073F94E48CA
:1004F000B8614E4F4E4C2C48C760FFF75DFF207827
:100500002979084301D002F047FF0CF0F4FB207872
:100510002979084301D002F03FFF05F001F8307857
:10052000002804D00128E6D1FFF734FEE3E7FFF707
:10053000ADFEE0E710B50CF017FD0CF07EFE03F009
:1005400031FE05F084F929494878401CC0B2487052
:1005500000230122022803D34B7036480270CA7070
:100560000878401CC0B20870042805D30B708A704C
:100570000CF070FE05F07AF910BD0000A10100201A
:100580009401002082010020860100203401002017
:100590000A0100207F01002088010020D3010020F3
:1005A0009801002000E00540000001400000FA5AD8
:1005B00000E000E000C0054040200340840100202E
:1005C0004002002005010020510100200901002007
:1005D000C8020020070100200801002006010020B9
:1005E000220100201A01002040010020000000200C
:1005F0009C0100209E010020A00100200401002099
:10060000BF0200209F010020FF000020E401002025
:1006100020010020F40000201C01002000200440E4
:1006200000000640AAAA000002C00000AA55FA5A1B
:10063000A601002017010020BFF34F8F0349024895
:10064000C860BFF34F8FFEE70400FA0500ED00E03D
:10065000F8B506460D4617464248B100081802682C
:10066000002A01DB0220F8BD002E03D0042E01D8A1
:10067000402F01D90420F8BD0068400F042801D0A4
:100680000120F8BD3848805D002804D0304600F0D5
:100690003EF90320F8BD354808180068B84201D279
:1006A0000520F8BD701E32498000085800900024D3
:1006B00014E0295D641C285D00020843641C295D68
:1006C00009040143641C285D00060843641C0146BC
:1006D000009800F040FA0098001D0090BC42E8D35A
:1006E000F9B2304600F0FBF90020F8BD70B5234B9D
:1006F000204C1968228800251F4E481C002A0CD067
:10070000012A15D0022A1ED0032A05D1FF2925D29D
:10071000012109043160186070BDFF2904D2FF2156
:1007200001313160186070BD1D600120208070BDF6
:10073000FF2904D2FF2109043160186070BD1D60DB
:100740000220208070BDFF2904D2FF210902316000
:10075000186070BD1D600320208070BD1D60258065
:1007600070BD000018C00540BD0000202C02002014
:100770001C020020D0000020D8000020D40000205F
:10078000421E032A04D8F94A800080188038C167C5
:10079000704770B500F0CEFD00F068FF06F043FA38
:1007A00006F0FCF9F248016810231943016040216A
:1007B0000120FFF7E5FF80210220FFF7E1FFC021C4
:1007C0000320FFF7DDFFE0210420FFF7D9FFE94810
:1007D0004021016080224260C0228260E022C2602B
:1007E000E5480160436083600821C1600161DF4C1E
:1007F000E248483C2060022060611F25ED0632205F
:1008000005F085FF2561D948610408384162DC495B
:10081000C162012000F01FFA012000F015FA70BD3E
:10082000D249002048390861D64902200860704743
:1008300010B51C2000F00FFAD449D3480862D44800
:10084000016901229204114301610120CD4A01078F
:100850001160D049087010BD10B51D2000F0FBF9E3
:10086000CD49C9480862CA4801690122920411436E
:1008700001610120C34A41071160C649087010BDDB
:1008800070B5C2480025C5601F21C9014161BE4C39
:10089000046281611C2000F0DEF91C2000F0D4F914
:1008A000BD48C5600121C9034161046281611D2009
:1008B00000F0D1F91D2000F0C7F970BD10B5B348A4
:1008C0000021C1604161B04901620921C901816112
:1008D0001C2000F0C0F91C2000F0B6F910BD01206A
:1008E000A249C00248398860704701209F498002B0
:1008F00048398860704701209C4940024839886027
:100900007047FF20994901304839886070470428B2
:100910000DD8964A8100303A8918002804D19348AE
:1009200048384068C00102D407204007086070477B
:1009300010B506F078F900F0CBF910BD10B58B4C6E
:10094000483C62680020C043A060002A08D0500FD5
:1009500015D0002A07DAFFF7EBFF00F095F93DE02C
:10096000FFF7E6FF10BD500002D500F0A2F935E018
:10097000900033D5FFF7DCFF00F0A1F92EE0100264
:10098000C00E18D0100202D500F0FBFB26E050028A
:1009900002D500F03AFC21E0900202D500F076FC8E
:1009A0001CE0D002800F19D00320C004A0600020FA
:1009B000FFF7ADFF12E01005000F0FD0D00501D5F5
:1009C000FFF79FFF900501D5FFF795FF500501D573
:1009D000FFF78BFF100501D5FFF781FF206810BDE1
:1009E00000206E49401C8842FCD370471E20401EE8
:1009F000411CFCD1704700B55C4A0620483A506162
:100A0000FFF7F4FF05205061FFF7EAFF506904216A
:100A10008843506100BDF8B55D4C216902208143D7
:100A20002161524D483D6868400019D52869092167
:100A3000C9068843286102F067FD02F071FD206954
:100A400000270006534E002802DA3770FFF718FF20
:100A50000A2005F056FE6868400002D4FFF768FFE0
:100A6000F8BD4F490420086030BFFFF761FF3078C0
:100A70000028F5D037704B491420088021694A4876
:100A8000884307D120690121890488432061A06837
:100A9000012807D068684000E2D520690221084398
:100AA0002061F8BDFFF7A7FFF8BD30494839CA6B90
:100AB000012383409A43CA637047042805D82B4911
:100AC000800030394018002101607047042805D8A3
:100AD0002649800030394018090701607047042812
:100AE00007D8224A8000303A801805225207891818
:100AF000016070471D49383148600220C860C868ED
:100B00008007FCD4886829490860704700B50A4608
:100B1000402A0ED2401E17498000085891084018FC
:100B2000FFF7E8FF9007C10E20480068C840C0B238
:100B300000BD002000BD00B510290AD2401E0D4A9C
:100B40008000105889004018FFF7D4FF174800684C
:100B500000BD002000BD054A383250609160012080
:100B6000D060D068C007FCD17047000048C0054085
:100B700000E005401C0200202C020020100000B004
:100B80000440000080E100E0FFFF000000A00440FE
:100B900040020020BC000020008004400A28000021
:100BA000402003408401002080000400E000002079
:100BB00030B50B46402B15D2401E2A4980000858FC
:100BC000990845182846FFF795FF274804689807B5
:100BD000C30EFF2098408443114699402143284684
:100BE000FFF7B9FF30BD1029BED2401E1D4B80005B
:100BF0001858890040181146ADE7B5E71B4A9063C5
:100C00001A4802214030016001688907FCD4D06B8A
:100C100017490860A8E7154A9063D163134801217A
:100C2000403001600168C907FCD19DE711480121EE
:100C3000C160C168C906FCD5022101610F4A0E4995
:100C40001160002101608FE7C106C90E01208840B4
:100C50000B49086088E7C106C90E01208840094990
:100C6000086081E71C020020E000002040C0054031
:100C7000DC000020000006400200FA5A0020064076
:100C800000E100E080E200E010B50020F74AC04338
:100C90009060F7490120086100208860D060FFF76C
:100CA00036FE01242046FFF708FF641C042CF9D906
:100CB00010BDEF4801690222114301617047EC4801
:100CC0000169042211430161E849D0068860704738
:100CD000E64801690922D206114301610121490652
:100CE000816070470120E14980068860704710B537
:100CF000DF4CA06801280CD1DE4A002000211154ED
:100D0000401C0428FBD92079012802D8A278002AA7
:100D100003D00020FFF7FBFD10BDD74A1154FFF7A9
:100D2000C4FE20690121090408432061002108460E
:100D3000FFF7D5FE10BD10B5CD4CA068012814D129
:100D40002078812811D1207901280ED8CA49095C60
:100D50000020FFF760FF20690121C90308432061DB
:100D600001210020FFF7BBFE10BD0020FFF7CFFDE3
:100D700010BDF8B5BF4DBE4E3069800607D5B078BE
:100D8000102101240027002805D0012819D00020B7
:100D9000FFF7BDFDF8BDB76030690843306101273A
:100DA000EC553846FFF789FE7F1C042FF8D93069CF
:100DB000012109040843306100210846FFF78FFE36
:100DC000F8BDB46030698843306100242F55002C91
:100DD0000CD02046FFF77AFEA4480069611EC84087
:100DE000C00703D000212046FFF779FE641C022CC7
:100DF000ECD930690121090408433061002108461B
:100E0000FFF76DFEF8BD70B5994DA9680020FFF79A
:100E100002FFA868012806D101242046FFF756FEEC
:100E2000641C022CF9D9954800210160286903212E
:100E300089030843286101210020FFF750FE70BD9F
:100E400010B50020FFF763FD10BD10B5044618066D
:100E50001204104309020843204310BDF8B5884F1F
:100E60003C688348854EC0883168884200D2306033
:100E7000306800281DD00025E378A27861782078BA
:100E8000FFF7E3FF0146A800FFF7C5FE241D6D1C18
:100E9000EDB2102DF0D33068402815D3402100204A
:100EA000FFF71DFE386840303860306840383060E9
:100EB000F8BD00210846FFF712FE6C488169012247
:100EC000120711438161F8BD3068C1B20020FFF7FD
:100ED00006FE00203060F8BDF8B50024002064490B
:100EE000684BCA780D798F780C26014671435E5C99
:100EF000B24211D1C9184E78B5420DD18E78B742A1
:100F00000AD10C225043C01882885C4802605C48B9
:100F100089680160012402E0401C1028E4D3002C01
:100F200008D0534908690122D20310430861FFF732
:100F300095FFF8BD0020FFF7EAFCF8BD10B54C485E
:100F40000169202399430161016940221143016134
:100F50008178002902D002691A4302610173016994
:100F6000012212041143016100210846FFF7B7FD79
:100F700010BD70B53E4D28784406640E000602D5BB
:100F80000020FFF7C4FC002C05D0022C0FD000205D
:100F9000FFF7BDFC70BDA8780128FBD128693A494C
:100FA0000843286100210846FFF799FD70BDA87825
:100FB0000028FBD128794006400E411E0129F5D8B2
:100FC000A9680129F2D12B4A1154FFF7A0FC286926
:100FD000012109040843286100210846FFF77FFD2D
:100FE00070BD70B5224D28784406640E000602D507
:100FF0000020FFF78CFC002C1AD0022C17D1A87807
:10100000002814D128794006400E0022194BE10334
:1010100000281ED002280AD8AC68012C07D11A5427
:1010200028690843286100210846FFF758FD70BD74
:10103000A8780128FBD12869802188432861286984
:10104000114980390843286100210846FFF747FD10
:1010500070BD28698006FBD51A702869084328618D
:1010600000210846FFF73BFD70BD000000C00540B1
:1010700040020020BD000020CC000020C80000205D
:10108000C4000020080000208001010070B5B84DA8
:1010900028784406640EC00901D1FFF738FC012608
:1010A000F603002C15D0012C27D0022CDCD1287996
:1010B0004006400E0228D7D8AE49095C0020FFF751
:1010C000AAFD28693043286102210020FFF707FDAF
:1010D000CAE72869000604D502210020FFF79BFD1E
:1010E00003E000210846FFF796FD28693043286198
:1010F00002210020FFF7F3FCB6E7A8680128B3D16E
:1011000068790028B0D128790128ADD80021084697
:10111000FFF781FD28693043286102210020FFF795
:10112000DEFCA1E710B592484078030005F0ECFE24
:101130000C070A250D25101316191C1F2225FFF771
:10114000A5FF10BDFFF74DFF10BDFFF712FF10BD4B
:10115000FFF7F4FE10BDFFF7BFFE10BDFFF770FEF6
:1011600010BDFFF750FE10BDFFF703FE10BDFFF7E7
:10117000E2FD10BDFFF7BBFD10BD0020FFF7C7FB70
:1011800010BD7CB533207C4CC004A0600020FFF76C
:101190009DFC6068400331D4754C20690321C9036C
:1011A000884320610020FFF729FD744D28680190D5
:1011B0000420FFF723FD286800900198C0B220703A
:1011C0000199090A61700199090CA1700199090E30
:1011D000E170009921710099090A61710099090C67
:1011E000E18060210840002802D0202803D008E0D8
:1011F000FFF798FF7CBD00F007FA7CBD012080045A
:10120000A0600020FFF783FB7CBD70B501205A4E23
:101210008005B0605A4DA87C022815D10020A87422
:101220006869584988420DD1A8695749884209D14F
:101230000024A0000021FFF7EEFC641C402CF8D332
:10124000FEF784FF0420A874494C20694F4D4006E6
:101250000CD52069402188432061207BF06000206C
:10126000FFF755FB2069A8432061FDE6E0880028D0
:1012700008D02069C00305D4FFF7F0FD2069A8431A
:101280002061F1E60020FFF742FBEDE6F8B5012111
:101290003948490581603A4DA87C384E012819D05B
:1012A000686D80050DD5686D091388436865002059
:1012B000FFF7A4FC30682870686D012149030843DA
:1012C00068652B4C2069000425D400210846FFF7EF
:1012D00006FC29E00024A0000746FFF78FFC3068D9
:1012E00079194861641C102CF5D30220A874686930
:1012F0002449884203D1A86923498842E1D024487F
:101300000122017811430170224800780428D8D1C5
:1013100002F078FAD5E718484168C90104D4816918
:101320000122D2061143816120690121C90388434A
:101330002061F8BD00200F4A00211154401C0528EF
:10134000FBD30020144A1154401C0428FBD3084846
:10135000017041708170C17001714171C180816003
:1013600001730169012252041143016170470000B9
:1013700040020020BD00002000C00540DC0000202D
:1013800054020020AA42895AFF7162CC0000010079
:10139000E800002068010020CC00002010B5B84A09
:1013A000107821281BD1B749486D01231B0318432E
:1013B00048651079012812D89078002804D14B6D27
:1013C0000324A402A3434B65487410690121090456
:1013D0000843106100210846FFF781FB10BD002083
:1013E000FFF795FA10BD10B5A5480178212914D151
:1013F00001690122120411430161A2494A6D0123CE
:10140000DB021A434A650279012A06D8C0780874BB
:1014100000210846FFF763FB10BD0020FFF777FAB5
:1014200010BD10B597490120887400210846FFF7C8
:1014300056FB10BD10B592480169012212041143F8
:1014400001619048416DD211114341650021084668
:10145000FFF745FB10BD10B589480178212907D158
:101460000179002904D1C078022805D0032806D0CC
:101470000020FFF74CFA10BDFFF7DCFF10BDFFF7AF
:10148000D0FF10BD10B57E4C2078A12816D17D4824
:10149000416DC90401D401214174217901290DD87C
:1014A000417C0020FFF7B7FB20690121C9030843F5
:1014B000206101210020FFF712FB10BD0020FFF783
:1014C00026FA10BD10B56E480178A12908D16D49E2
:1014D0004A6D0123DB021A434A650279002A03D0D0
:1014E0000020FFF714FA10BD0A7C67490A60016901
:1014F0000122D2031143016101210020FFF7EFFA1D
:1015000010BD10B56149002008605D4801690122E5
:10151000D2031143016105210020FFF7E0FA10BD5D
:10152000F8B55B4E02213078084330700024554DE9
:10153000A0004119496900910099FFF76CFB641CF8
:10154000E4B2102CF4D34E4801690122D2031143B6
:10155000016140210020FFF7C2FA687DAB2806D167
:101560003078FD21084030704A4904200870F8BDE9
:1015700010B5444801780020FFF74DFB4048016951
:101580000122D2031143016101210020FFF7A7FAD4
:1015900010BD10B53D49002008603948016901229D
:1015A000D2031143016108210020FFF798FA10BD12
:1015B00010B533480178A1291FD1816801291CD1B8
:1015C0000179C078002902D0012910D015E0012846
:1015D00004D0022805D0032806D00EE0FFF7D9FF7B
:1015E00010BDFFF7C5FF10BDFFF79AFF10BD2549DD
:1015F000497C012901D1012803D00020FFF787F998
:1016000010BDFFF77EFF10BD10B51D4840780300E8
:1016100005F07AFC0C19070A0D191919191910137C
:101620001619FFF7C5FF10BDFFF74CFF10BDFFF700
:1016300029FF10BDFFF70FFF10BDFFF7D4FE10BD4F
:10164000FFF7ACFE10BD0020FFF761F910BD10B52B
:101650000E49002008600A4801690122D2031143A3
:10166000016105210020FFF73AFA10BD05487D21F0
:1016700001740121417400218174416570470000AB
:101680004002002054020020E4000020C800002096
:10169000E800002068010020F0B591B000204D4A1C
:1016A0004D4B4E4D0024410054525C526C52401C34
:1016B00080B27E28F7D3012005F057F804F099FF97
:1016C000002507273F0301AE0020AA0181008B18E7
:1016D000DB191B687350401C80B21028F6D3012020
:1016E000C003101801AA102104F014F96D1CADB24A
:1016F000162DE9D3002081007450401C80B21028C0
:10170000F9D301AA1021364804F004F9344801AA9B
:101710001021403004F0FEF8432001AA10214002BD
:1017200004F0F8F82E4801AA1021C03004F0F2F8B5
:1017300001AA10212B4804F0EDF804F053FF11B07A
:10174000F0BDF8B50024284D065D2E55641CA4B2EA
:10175000402CF9D3002404E00E5DA718EE55641C5C
:10176000A4B29C42F8D3204A402104F0A3F80128F7
:1017700000D1FEE7F8BDF8B586469446002415482A
:10178000154F164A0026650046537E535653641C77
:10179000A4B27E2CF7D30020134A03E00C5C14544F
:1017A000401C80B29842F9D37046604404460E4A09
:1017B000402104F07FF8012809D00B4A2046403030
:1017C0004032402104F076F8012801D1FEE7FEE71F
:1017D000F8BD00001E0700201A080020160900208E
:1017E00080850000808600005C0E0020FE490020FD
:1017F000487003202F390870022008390870FB490F
:1018000001200870F84906201139087005200C39AC
:101810000870F849F64808807047F8B50020F64986
:1018200009680127C906002900DA0120F34909687F
:10183000C90401D502210843EB4C453CE1788142C3
:1018400003D0E07004206071F8BD60790028FBD0FF
:10185000401EC0B260710028F6D1E9480078002827
:101860006DD0E14DE14B2279653D26200026093BF4
:10187000405D002A01D1012902D0002A30D05EE06B
:10188000002804D001280BD002281CD057E0EF76A6
:10189000D548EA212F3841708670052028864EE011
:1018A000D849887849780843CF4908702B20887038
:1018B00008220120FEF7CCFE6F76CB4886707D2093
:1018C000C00028863BE00820187038205870FF20A0
:1018D0009870C649092209390220FEF7B9FE2EE0A8
:1018E00002292CD1002804D001280BD002281BD0BB
:1018F00025E0EF76BC48E9212F384170867005203D
:1019000028861CE0BF488178B7480170B6492B2073
:10191000887008220120FEF79BFE6F76B248867021
:101920007D20C00028860AE008201870C820587062
:101930009E70AE49092209390220FEF789FEE0783F
:101940002071F8BD70B500240020A74D295C0C4320
:10195000401CC0B20828F9D3A34A0123653A0021EC
:10196000002C07D05376517200202954401CC0B27D
:101970000828FAD3002401209C4D2E5C3443401CDF
:10198000C0B21028F9D3002C06D053770120295477
:10199000401CC0B21028FAD300240120924D2F3DE4
:1019A0002E5C3443401CC0B20328F9D3002C06D06F
:1019B000D37601202954401CC0B20328FAD38A48A8
:1019C00037384478002C01D013774170002401206F
:1019D000854D113D2E5C3443401CC0B20528F9D31F
:1019E000002C06D0937601202954401CC0B2052853
:1019F000FAD370BDF8B57C4B653B187A1C4601469E
:101A00004207E57AE039520F0124072912D85C76A3
:101A10007548012D007807D07A496533895CFF222B
:101A2000514008401870F8BD764B6F499A5C1043DE
:101A30000870F8BD0146B0390E461F2912D8DC7671
:101A4000694903222F39012D04D00A700020487003
:101A50008870F8BD6C4B7000185A0A704870000A04
:101A60008870F8BD0146A839022918D81C775E4A4B
:101A7000644C373A10462E38007A022320185178E9
:101A8000C038012D06D01370007EFF23584001405E
:101A90005170F8BD1370007E01435170F8BD524B78
:101AA000514E653B997D8E46597A1B7A7718DE0830
:101AB0004E4BF318012D13D0002952D04A4DBE7859
:101AC000653D6D7A6D1E0095EDB2AC4686422BD118
:101AD0000021454DB970653D6C766146697240E004
:101AE000414D653D062911D200290AD000223E4B06
:101AF00005E09E18B6788642D0D0521C92B28A4237
:101B0000F7D3B870491C69726C76F8BD714601292B
:101B1000FBD07828F9D26C7734480470394958786A
:101B2000895C08435870F8BD00262F4F17E0BD1997
:101B3000AD78854211D12C49653904E0B819C278D5
:101B40008270761CB6B200988642F7DB0020BA1984
:101B500090704C7660464872F8BD761CB6B28E42E4
:101B6000E5D3214965397828F6D270460128F3D0AB
:101B70004C771E48047023495878895CFF225140F5
:101B800008405870F8BDF8B5174C453CA07A0028BD
:101B900066D0274650373868401C386079688842DC
:101BA0005ED300253D6020462C3026460088203E2E
:101BB000316D800040184168090109097960C278D7
:101BC00069460A70807848700021D30900D001214D
:101BD00070231A406B461A70034B113B102A17D022
:101BE000202A21D0302A11E051010020C802002013
:101BF00030750000E601002000A0044000600440B1
:101C0000A6010020F66F0000107900000ED015E04C
:101C10000122B276F64A0029527802D002435A7065
:101C20000CE082435A7009E0187107E03072F572D7
:101C3000002901D00120F072FFF7DCFEEC490839E1
:101C40000888801C80B208804A88904208D3207A95
:101C5000002802D0012804D010E0A572FFF772FE20
:101C6000F8BDE34A223A1078401CC0B21070527896
:101C7000904203D3A572FFF765FEF8BDE079DD4A17
:101C800080008018006CDB4A403280183D600A22D8
:101C90007A600D80028808304A803065F8BD70B5E2
:101CA0000020D34D543D6978491CC9B269701E2982
:101CB00035D300266E70297B2C46203401290BD0A9
:101CC000687B00282BD0607A401CC0B26072C107CC
:101CD00028D0FFF737FE2DE02178002906D0012912
:101CE00006D0022907D0032908D009E0C24807E03E
:101CF000C148403004E04320400201E0BE48C0300B
:101D0000E97F425C002A0BD0425C2A72491CC9B2AE
:101D1000E977405CE872491CE977FFF76BFE70BD1C
:101D20002E7370BD0121E972296D4008085C28728C
:101D3000FFF760FE607A0728F3D36E7370BDF0B5CD
:101D4000AB4A543A107901282CD10021117100209E
:101D5000154659352954401CC0B20628FAD3907A4A
:101D600001281FD10020A54EA54F18E04200B15C0C
:101D7000A44C4B075B0FE35CC908A34C8900615876
:101D80000B420AD191194B78A04C9906490F5B0779
:101D90005B0F6A5CE35C1A436A54401CC0B239882A
:101DA0008842E3D3F0BD10B5994A0021107800288D
:101DB00006D08F4834384378012B11D0117010BDF4
:101DC0008B485438C1770120107092480180002060
:101DD0008C4A2C321154401CC0B27828FAD310BD62
:101DE000117041700178844800290ED0012913D068
:101DF000022918D003291DD00429F0D18149782364
:101E000000222C31FFF79DFC10BD7E497823002273
:101E10002C31FFF796FC10BD7A49782300222C3133
:101E2000FFF78FFC10BD7749782300222C31FFF794
:101E300088FC10BD7349782300222C31FFF781FC08
:101E400010BDFEB56A4B0024343B1E465978203E37
:101E5000F07A002915D0B17A002912D1327AAF2A4E
:101E600005D0F17F782903D334720BF0FBF9FEBD66
:101E7000644D2C356A54491CC9B26854491CF17729
:101E800034725B4A644D317A543A927C2D789729AA
:101E900076D0982970D099296FD09A296ED05F4A50
:101EA0009B29127894465E4A127868D05E4E5D4F48
:101EB00036780196761C3F78F6B2ED297ED09E29C1
:101EC0007DD0D3297CD04A4D543DDA2979D0504E6B
:101ED000D0293678009675D0D82974D0AD2973D022
:101EE0009F2972D0514F2E463D78F1296ED0F029AE
:101EF0006DD04F4EF32935786AD0F22969D04D4D17
:101F0000F4292D7866D0E82965D0922964D09329E8
:101F100063D0942962D0952961D0962960D0DC29BC
:101F20005FD0DD295ED0DE295DD0DF295CD0A0291D
:101F30005BD02F4A543AEC2958D015462D7B1C29EA
:101F400055D018297CD00C297BD012297AD013299E
:101F50008DD100288BD038480078002887D0002DFC
:101F600085D1547001201073042018701472D47736
:101F7000FFF7E8FCFEBD03E088E0B7E0ECE035E108
:101F800034720028F6D0012A07D00120C0038179DD
:101F9000214801700120B0740AE01F48012D69D06A
:101FA000022D6AD00E2D6BD00D2D6CD00121017049
:101FB0001948224900780870012044E040E16AE1B4
:101FC00076E198E1A4E10EE219E224E251E264E252
:101FD00077E28BE29FE2BAE2C0E2CAE2D4E2DFE259
:101FE000EAE2F5E20CE323E33AE351E368E389E351
:101FF000400100208097000080850000717800007B
:10200000E46F0000AC02002050790000F66F000081
:10201000B6010020D8010020A7010020A601002061
:10202000BD010020B1010020A40100200402002015
:10203000060200200202002080860000C10100206C
:1020400071E382E394E3C0030279F7490A704179AE
:10205000F648017008F0D4F9F54901200870F548F8
:102060000470F54804700AF021FD0AF029FD0BF018
:1020700053F87FE7022101709AE70E21017097E77C
:102080000D21017094E70C21017091E73472002852
:10209000EFD0022A07D00120C003C179E7480170C0
:1020A0000220B07403E0E548002D1CD00470E34822
:1020B000E349007808700120C0030279DA490A7008
:1020C0004179DA48017008F09BF9D949012008707C
:1020D000D8480470D84804700AF0E8FC0AF0F0FC14
:1020E0000BF01AF846E706210170E0E73472002889
:1020F000BFD0032A07D00120C003017ACF48017066
:102100000320B07406E0CD480A2D1FD00B2D20D03F
:102110000A210170C948CB49007808700120C0032A
:102120000279C1490A704179C048017008F068F924
:10213000BF4901200870BF480470BF4804700AF00E
:10214000B5FC0AF0BDFC0AF0E7FF13E70B210170B4
:10215000E0E709210170DDE73472002889D0042A04
:1021600007D00120C003417AB44801700420B07444
:102170000EE0B248082D27D0042D28D0052D29D0F7
:10218000032D2AD0102D2BD0112D2CD00821017019
:10219000AA48AD49007808700120C0030279A2491D
:1021A0000A704179A148017008F02AF9A04901207C
:1021B0000870A0480470A04804700AF077FC0AF088
:1021C0007FFC0AF0A9FFD5E604210170E0E70521B4
:1021D0000170DDE703210170DAE710210170D7E714
:1021E00011210170D4E70F210170D1E7347200286A
:1021F000ABD06046122803D090491320087007E046
:102200009249521CD0B20870052801D901200870EB
:102210000120C003027984490A7041798348017022
:1022200008F0EEF882490120087082480470824864
:1022300004700AF03BFC0AF043FC0AF06DFF99E6DB
:1022400083490C720028BED07C48062D19D0062187
:10225000017007200003027973490A7041797348BD
:10226000017008F0CDF872490120087071480470BF
:10227000714804700AF01AFC0AF022FC0AF04CFFC4
:1022800078E674480670BE4200D904700AF018FC63
:102290000AF042FF6EE66E490C72002893D06E4839
:1022A0000178002901D0047064E60121017061E623
:1022B00067490C72002886D060496D1CE8B208702E
:1022C000132800D30C7007200003027956490A70C6
:1022D00041795648017008F093F85549012008707B
:1022E00054480470544804700AF0E0FB0AF0E8FB1C
:1022F0000AF012FF3EE62C720028A0D05548067066
:10230000BE4200D904700AF0DBFB0AF005FF31E69B
:102310002C72002893D06046122890D1012A07D051
:10232000022A05D0032A03D0042A01D0052A86D127
:102330000099414800291AD00470019808289FD3B9
:10234000012A21D0022A27D0032A2ED0042A35D0F0
:1023500021208002052A3AD0062A3ED0072A8FD1B2
:10236000FF227E2301323D49FFF705FA02E60121F3
:1023700001703B4804800020384AFF211154401C62
:10238000C0B27E28FAD3F5E5012252027E233349FA
:102390009001FFF7F0F9EDE5052201207E23D2013F
:1023A0002E49C003FFF7E7F9E4E5032201207E236D
:1023B00012022A49C003FFF7DEF9DBE507220120FC
:1023C0007E23D2012549C003FFF7D5F9D2E57E234C
:1023D00000222249FFF7CFF9CCE57E2380221F4956
:1023E000FFF7C9F9C6E52C72002890D01148017892
:1023F000012902D001210170BCE50470BAE52C72FC
:10240000002884D017480178002901D00470B1E574
:1024100001210170AEE52C720028A7D01248017886
:10242000002923D00470A5E5B8010020BA010020DE
:10243000A9010020BC010020B6010020A701002056
:10244000C2010020C3010020C4010020BD01002002
:10245000EC000020A4010020D10100206305002031
:10246000D8010020CE010020D201002001210170FE
:1024700080E53472002886D0042D0BD26D1C3D708F
:1024800002F030FB01207074387804288CD10AF0F7
:10249000E9FE6FE50AF0E6FE6CE5347200288CD0A8
:1024A000012D0BD96D1E3D7002F01CFB01207074D4
:1024B000387800288AD10AF0D5FE5BE50AF0D2FE12
:1024C00058E5FB4F3C72002886D0042D0BD26D1CC2
:1024D000357002F0E1FC01207874307805288BD14A
:1024E0000AF0C0FE46E50AF0BDFE43E5F04F3C723F
:1024F00000288CD0012D0BD96D1E357002F0CCFC5C
:10250000012078743078002884D10AF0ABFE31E5E0
:102510000AF0A8FE2EE5E6490C720028A8D0052D89
:1025200007D0062D05D0E348017800290CD00470AF
:1025300020E5E1490878401CC0B20870082800D3A3
:102540000C700AF0E9FD15E50121017012E5D8498A
:102550000C7200288CD0FFF726FC0BE5D4490C72D6
:10256000002885D01C700098002892D00120587057
:1025700000E5CF490C7200288BD00120187000991B
:10258000002986D05870F5E4C9490C72002894D00F
:1025900002201870009800288FD001205870E9E4BC
:1025A000C3490C72002888D00320187000980028B6
:1025B00086D001205870DDE4BD490C72002891D00E
:1025C00004201870009800288CD001205870D1E4A5
:1025D000B7490C72002885D0B848012A02D161465B
:1025E000122994D001210170B5480470B549132017
:1025F00008700AF05BFA0AF063FA0AF08DFDB9E49C
:10260000AB490C72002885D0AC48022A02D1614641
:1026100012298DD002210170A9480470A949132004
:1026200008700AF043FA0AF04BFA0AF075FDA1E4CB
:102630009F490C72002886D0A048032A02D1614627
:1026400012298AD0032101709D4804709D491320EE
:1026500008700AF02BFA0AF033FA0AF05DFD89E4FB
:1026600093490C7200288ED09448042A02D1614606
:10267000122988D0042101709148047091491320D7
:1026800008700AF013FA0AF01BFA0AF045FD71E42B
:1026900087490C7200288ED08848052A02D16146ED
:1026A000122988D0052101708548047085491320BE
:1026B00008700AF0FBF90AF003FA0AF02DFD59E45C
:1026C000147200289BD080496D1CE8B2087007285E
:1026D00000D30C7007200003017B3170407B387001
:1026E00075490320087002F0D7FB02F0FBF971482E
:1026F00004707648047002F05BFF02F0A1FB0AF060
:102700000BFD37E4002892D07148007800288ED065
:10271000002D8CD15470012010731C701472D4776A
:10272000FFF710F926E4002899D069484030007876
:10273000002894D0002D92D154700120107318708D
:102740001472D477FFF7FEF814E4002887D04320F2
:102750004002007800289AD0002D98D154700120B2
:102760001073022018701472D477FFF7EBF880E42E
:102770000028FCD05648C03000780028F7D0002D43
:10278000F5D1547001201073032018701472D4779F
:10279000FFF7D8F86DE410B5002045494D4B097A94
:1027A0004D4A05E044001C5D8C4205D0401CC0B27F
:1027B0001488A042F6D3FF2010BDF0B53C4C454F25
:1027C000E07A26465F36454D002812D0A07A0028D0
:1027D0000ED0FFF7E0FFFF280AD04100C919497861
:1027E0002172C1084007400F725C285C024372549A
:1027F000F0BDFFF7D0FFFF28FAD0C20843075B0FF8
:10280000B15CEB5C1942F3D04000C01940782072F3
:102810009943B154F0BDF8B5254E307A00281AD04E
:10282000FFF7CBFF0024B4863078002801D1FFF7F2
:1028300008FB307A00280ED00125AE2802D0D2281D
:102840000DD029E0F07A012805D1317824480129FA
:1028500002D035700570F8BD34700470F8BDF07AA0
:102860008021002814D0B08D0843B0858221814397
:1028700012D11C480178002907D00470FEF70CFF24
:1028800007F001FE02F04CFB06E01E20B08603E0DC
:10289000B486B08D8843B0850548317A2030A329AD
:1028A00022D0A42927D0A5292CD0E92932D042E072
:1028B000EC000020FD01002003020020BD010020EB
:1028C000A6010020A701002002020020090200202A
:1028D00080850000C9780000E46F0000F66F0000FA
:1028E000CE01002004000020F17A0129B6D18471C4
:1028F0000AF012FCF8BDF17A0129FBD185710AF0CA
:102900000BFCF8BDF17A0129FBD1022181710AF09B
:1029100003FCF8BD34728079002804D0012805D06A
:1029200002280CD004E0B520307201E0282030727B
:10293000307A0028EDD0337A112B11D024E0F07AD0
:10294000002801D03576F8BD3476FF4808210170A3
:1029500044708470014609220220FDF779FEF8BD1B
:10296000F07A00280CD0B07A00280DD0B08D284322
:10297000B085C043800707D1B5750AF073FCF8BD78
:10298000B08D40084000B0850A2B16D1F07A00289F
:102990000ED0B07A002810D0B08DFF21013108434D
:1029A000B085891C814308D1B4750AF05BFCF8BD81
:1029B000B08DFF2101318843B085E449E44EE54FF5
:1029C0004C2B6ED1E448C27A002A6BD0827A002A5E
:1029D00067D00246D475908D10231843908512223B
:1029E0008243DE480DD0DE4A1378002B7DD0DA4AD0
:1029F0001E20D0740878122855D0DA4813210170AF
:102A000059E009781229D2D1317800291DD03470CB
:102A1000D54909780829CAD3D4490978012918D099
:102A200002291DD0032922D0042927D02120800289
:102A300005292AD006292ED00729B8D1FF227E23C6
:102A40000132CB49FEF797FEF8BD3570C9480480C6
:102A5000F8BD01227E235202C549FEF78CFEF8BD67
:102A600005227E23D201C249FEF785FEF8BD03226E
:102A70007E231202BE49FEF77EFEF8BD07227E23AA
:102A8000D201BB49FEF777FEF8BD7E230022B8498C
:102A9000FEF771FEF8BD7E238022B549FEF76BFE7E
:102AA000F8BD40E039E0B1490878401CC0B2087078
:102AB000052800D90D70072000030279AE490A707D
:102AC0004079387007F09CFCAC480570AC48047045
:102AD0003470A4480178AB4801709F480521817487
:102AE00009F0E4FF09F0ECFF00E002E00AF014FB5B
:102AF000D6E71570C2789D4802700C709949132072
:102B00000870A049087094490520887409F0CEFF28
:102B100009F0D6FF0AF000FBC2E78F481022808D33
:102B200090438D4A90858C4A9748AB2B4BD0AC2B69
:102B30007AD09648D62B78D0D72B77D0944F1046A2
:102B4000D42B74D0D52B73D0A72B72D0DB2B71D0A4
:102B5000174665378F4AA62B6DD0A12B6CD0A22BC0
:102B60006BD0D12B6AD0877B8B4A012F02D017788C
:102B70003F0605D5E32B93D0E72B91D0652B8FD063
:102B8000F72B7DD0F82B08D3C77B002F79D05B07BC
:102B90001F0F824BFB185B7803721278930604D5E3
:102BA000037AE22B6ED02B2B6DD0520604D5027A1D
:102BB000E22A69D03D2A68D0027AAF2A66D0097825
:102BC000122975D038E21472D17A0423002943D037
:102BD000918D194391854907890F032902D13178D5
:102BE000002913D03078002829D0614B117D585C22
:102BF000FF2891D0072801D2401C5854507DFF284F
:102C000001D0585C50756648057049E765490978F8
:102C1000052901D00629F8D10178072901D2491CDC
:102C200001700AF079FA3BE71AE060E0C8E0FEE0E4
:102C300036E16CE178E184E19EE1B7E1D0E14A4917
:102C4000594A087812789042DFD2401C087009F087
:102C500037FF0AF061FA23E7908D984390851FE7CC
:102C60001472D17A00293DD0918D082319439185A2
:102C70000A238B4331780B431BD0002927D006E071
:102C8000B8E1C1E1C6E1C7E1C8E1C9E1CAE1384B39
:102C9000117D585CFF28B8D0002801D0401E585440
:102CA000507DFF2801D0585C50753D480570F7E60F
:102CB000BFE13C490978052901D00629A5D1017851
:102CC000002901D0491E01700AF026FAE8E62649DB
:102CD0000878002899D0401E087009F0F1FE0AF02B
:102CE0001BFADDE6908D082188439085D8E61472A2
:102CF000D17A202300295FD0918D14461943918504
:102D000022228A430FD03878062852D2401C3870CD
:102D10001A48057065740AF0FFF9387806289AD1C8
:102D20000AF0A0FABCE6017804293FD2491C064605
:102D3000017001F0D7FE0AF0EFF9657430780428CD
:102D400089D10AF08FFAABE6BF020020A60100206D
:102D5000B6010020BA010020EC0000200080000035
:102D6000E4010020A7010020A4010020BD010020F3
:102D700063050020D8010020B8010020A90100202F
:102D8000BC010020C5010020030200200402002035
:102D900006020020F66F000069010020E66F0000C7
:102DA000A801002002020020B10100200AF05AFA16
:102DB00076E60AF057FA73E6908D984390856FE6B1
:102DC0001472D17A402300292DD0918D14461943D5
:102DD000918542228A430FD03878012820D9401E9D
:102DE0003870FE48057065740AF096F93878012845
:102DF00098D10AF037FA53E6017801290DD9491E16
:102E00000646017001F06EFE65740AF085F93078AF
:102E1000002887D10AF026FA42E60AF023FA3FE6B4
:102E20000AF020FA3CE6908D9843908538E6C17A06
:102E300000292FD00446808D012149020843A08536
:102E4000891C814310D0E64E307804281FD2401CE4
:102E5000307007F0D5FA65740AF05EF9307804280E
:102E6000A6D10AF0FFF91BE6387804280CD2401CE2
:102E7000387002F011F865740AF04EF938780528B8
:102E800096D10AF0EFF90BE60AF0ECF908E60AF041
:102E9000E9F905E6828D012149028A438285FFE531
:102EA000C27A01218902002A2DD00446808D084370
:102EB000A085891C814310D0C94E307801281FD9C4
:102EC000401E307007F09CFA65740AF025F93078DE
:102ED000012890D10AF0C6F9E2E5387801280CD92A
:102EE000401E387001F0D8FF65740AF015F9387883
:102EF000002891D10AF0B6F9D2E50AF0B3F9CFE58E
:102F00000AF0B0F9CCE5828D8A438285C8E5C17AA2
:102F1000002907D0817A002984D0818D02221143B3
:102F20008185BDE58485BBE5C17A002907D0817A1A
:102F3000002998D0818D022211438185B0E58485D6
:102F4000AEE50472C17A01298DD145763878D17801
:102F5000084338700F20B8700822A2490120FDF7FD
:102F600077FB0A2003F0D3FB3C70BC7008229D491C
:102F70000120FDF76DFB93E50472C07A012885D12D
:102F80003878D178084338700720B87008229549FE
:102F90000120FDF75DFB0A2003F0B9FB3C70BC701B
:102FA000082290490120FDF753FB79E50472C07AAD
:102FB000012891D13878D178084338700920B87049
:102FC000082288490120FDF743FB0A2003F09FFBFC
:102FD0003C70BC70082283490120FDF739FB5FE596
:102FE000C17A012988D1817B012901D0857357E5F8
:102FF000847355E5C17A012984D1C17B002901D0B0
:10300000C4734DE5C5734BE55B071F0F764BDB5D66
:103010000372C2E5047243E5047241E504723FE5C0
:1030200004723DE505718472C17A012986D18572E9
:1030300036E5317801299ED00078002802D0FEF7CD
:1030400081FC2DE5FEF7D6FC2AE5F8B5654901209F
:10305000453988706548674C027808462038C6793B
:103060006349700043185F4925786539C97A624C15
:10307000072A03D0614F082A29D073E05C4A105C0C
:103080005A78C0000019845C5D48002914D000788B
:103090005C49401E0855082D02D0FF2D04D00FE0DA
:1030A000204607F0ABFD0BE05748C079012807D157
:1030B000204607F0A3FD03E000785249801E085522
:1030C0005048015D5148415C51480155E8E40029F0
:1030D00048D04749085C5978795C4E4E325C0A43C7
:1030E00032544D4A135C0B431354012017273118F7
:1030F0002039CA7F335C1A43CA77474A391A8D1878
:10310000203D535CED7F2B435354401CC0B2172825
:10311000EDD300253F48475D3F48405D074300260B
:10312000F80715D0FF21E8000019805D384A1154D6
:1031300030490978082902D0FF2903D008E007F0B8
:103140005DFD05E03049C979012901D107F056FD3F
:103150007F08761CF6B2062EE2D36D1CEDB2172D59
:10316000D8D39DE4092A02D00F2A26D087E0204A2E
:10317000105C5A78C0000019845C002903D02148F3
:103180000021015512E01F4901200855082D02D0E9
:10319000FF2D04D00AE0204607F030FD06E01A4873
:1031A000C079012802D1204607F028FD1548015DAD
:1031B0001648415C1648015572E400295FD00C495D
:1031C000085C59787D5C13490D54134A1554134B10
:1031D0001D54134E355400250E4823E0A90100204C
:1031E000B801002051010020E66F0000A601002078
:1031F00080890000A4010020C08A0000F66F000052
:103200003F7D00005F06002050030020BF7C0000CF
:103210008C0B0020F0040020070500201E05002074
:1032200035050020475DFB48405D0743FA48415D96
:10323000FA48405D01430F430026F80715D0FF21EF
:10324000E8000019805DF64A1154F649097808290A
:1032500002D0FF2903D008E007F0D0FC05E0F249D6
:10326000C979012901D107F0C9FC7F08761CF6B2A3
:10327000062EE2D36D1CEDB2172DADD310E4122A49
:1032800020D0132A98D1002996D0E849085CE84B51
:103290003F221A54DF490A540025E548475DDD48BE
:1032A000405D07430026F80741D0FF21E8000019E0
:1032B000805DDB4A1154DB49097808292ED0FF29AB
:1032C0002FD034E0DB4A1278012AD7D1DA4A01291B
:1032D00001D1552E03D1552ED0D10029CED1917ACE
:1032E000012901D1552EC9D1D17D002901D1552EF9
:1032F000C4D0CE49085C5978C0000019405C1075F4
:10330000CE490B5CFF2B06D0FF230B54CC49012088
:103310000870D07579E4537D0B54F7E707F06EFC25
:1033200005E0C149C979012901D107F067FC7F088F
:10333000761CF6B2062EB6D36D1CEDB2172DACD3AB
:1033400063E470B5BC4CBF496279A08F88540025F6
:10335000A571606CC00712D06079A179C0004018D7
:10336000C0B2E071E572A18FC90701D00121E172FD
:10337000B549085C2072FFF768FEFFF74CFAE06B76
:103380004008E063606C40086064A079401CC0B2F3
:10339000A0710828DDD370BD70B5A74D0024A878B2
:1033A00000282AD0A7486A79815CE86B41406964AB
:1033B000002916D0E9780222002908D02B6C83421C
:1033C0000CD1491EC8B2E870002803D010E0EA70A2
:1033D00028640DE02C64FFF7B4FF09E0EA7028646C
:1033E00006E0EC70521CD0B26871132800D36C71E7
:1033F000FEF7A5FCFEF753FCAC708F482030C17A75
:10340000002902D0C472FEF7BEFB70BD8F48416830
:10341000FF221202914341608D4841688D4A11405C
:1034200041607047F0B5894983488A1547794C1542
:103430000D15CE1486483B0003F066FD130B0F13E9
:10344000171B21272D33383D42474C51565A5E6297
:103450000E00486A10434862F0BD486A2043486243
:10346000F0BD486A28434862F0BD486A304348626C
:10347000F0BD486A0122120310434862F0BD486A59
:103480000122520310434862F0BD486A01229203B0
:1034900010434862F0BD486A0122D20310434862DB
:1034A000F0BD416A012211434162F0BD416A02222E
:1034B00011434162F0BD416A042211434162F0BDF3
:1034C000416A082211434162F0BD416A2022114342
:1034D0004162F0BD416A402211434162F0BD416A40
:1034E000802211434162F0BD416A11434162F0BD47
:1034F000416A21434162F0BD416A29434162F0BD06
:10350000416A31434162F0BD50480168FF22120216
:10351000914301604E4801684E4A11400160704776
:103520004A484168FF2212021143416048484168FD
:10353000484AD24311434160704710B50024FFF759
:10354000EFFFFFF7E1FFFFF76DFF052003F0F8F84D
:1035500041480068000400D501244048016809057D
:1035600001D502210C430168490501D504210C4312
:103570000168890501D508210C430168C90501D5F9
:1035800010210C430068000601D52020044320468A
:1035900010BD2E480168FF221202114301602C4821
:1035A00001682C4AD243114301607047F0B5224AAA
:1035B0002B49137A5807400F095CD808294ED57A51
:1035C0005C001746A3195F37002D09D0BD1F2D5C85
:1035D0000D4202D0157C002D46D0305D1072F0BD3A
:1035E000154D5F352D5C0D4208D0134CFF265F341E
:1035F00071400D40255458781072F0BD937A012B1C
:1036000004D10D4B59331D5C0D431D54305D1072B8
:10361000F0BD0000070500201E0500203505002034
:103620008C0B0020A40100205003002080890000A2
:10363000F0040020B6010020EC000020630500200B
:10364000A8010020AC020020C9770000004004401F
:103650000060044010F0FFFF0080044000A0044020
:10366000F66F0000C97800003C5C0C433C5458786D
:103670001072F0BD00207047FEB593200002C06BB1
:103680005B49884201D00120FEBD5B495948CA7997
:10369000805C80000190594A01988018006C6B464C
:1036A000C2B21A7003041D0E6B465D7003021E0E3B
:1036B0006B469E70000ED8700290002A0BD00C460C
:1036C000E07A00272034130003F01EFC0890072343
:1036D000333E475583900120FEBD01228A76464B3A
:1036E0005433012D02D0032D0FD07FE0F206D20E0D
:1036F00069468A70404954314978002802D0114304
:10370000597073E09143597070E000286ED01E71BB
:103710006CE0394B65331A78002802D02A431A70BE
:1037200001E0AA431A70012048760E72002E5DD087
:10373000FEBD0122CA76304936314F708F700028A5
:1037400054D04D708E7051E001220A772A492E31F3
:103750004F7001284AD14D7048E0022D09D101284F
:1037600007D1887724480522483002704770867058
:10377000C7700F723AE0002825D0A07A002806D042
:10378000FEF7E0F8207A022820D01B480772E57186
:1037900026721948323007700299417067721849D1
:1037A000A8004018006C1449154A403280180123C3
:1037B000A3720A46703217605360243A1780038858
:1037C0000830538008650C4807720FE0A77200208C
:1037D000FEBD002809D0012048734F70074B019AA5
:1037E0004033D2180A656072CF710F720020FEBD9F
:1037F0000000AA5521770000EC0000208090000016
:103800008097000010B5FE490878C20709D040082B
:1038100040000870FB4803F055FBFB49886003201B
:10382000087010BDF0B5F7481438047D437DF44EA0
:10383000F54A31780027CD079078002D1ED0F14D44
:10384000143D490849003170042C01D1022B07D0E6
:10385000FF20E875D7809770377097601770F0BDBC
:103860000121E975916829760B0A6B760B0CAB7612
:10387000090EE976102108439070EBE78907EED531
:10388000C006ECD5D780977037709760D7601770F7
:10389000F0BD70B5DE49DD480880DE480178DE4CB9
:1038A00021702378FF2200210125142B1ED32378B9
:1038B000002B1BD02378802B18D0D84B1A7042785D
:1038C000227182786271C278A271027AE272427ABF
:1038D0002273827A6273C07AA073D1480170A17B8F
:1038E00001293BD0A17B02293AD03AE0CD4B1A7096
:1038F000427862708278A270C278E270027AE271D5
:10390000427A2272827A6272C07AA072C6480170CC
:10391000A17A012903D0A17A022902D002E0057020
:1039200000E005702178C148002914D02178802951
:1039300011D02178491E0170207ABD49087006F027
:103940005FFD09F0BDF8BB48617ABB4A1170057094
:1039500006F0C1FD70BD13210170EDE7057000E0B8
:1039600005702078B54914380870207BB449087078
:1039700001F092FA01F064FA607BB249087001F03C
:10398000B1F870BD38B5A04C002222719C4908786E
:10399000C30750D0400840000870E2802069E16809
:1039A00080004018974A102101F0B4FF2069E268B6
:1039B000800010580090A44882420DD101780388FD
:1039C00005681B09ED0A2B4305680079AD0C2B43F4
:1039D000C00103430B4363700020009B00991B044C
:1039E000C9B21B0EC918009B1B021B0EC918009BF5
:1039F0001B0EC918A368C918A1602169491C21615F
:103A0000890051580091001DC0B24028E5D3E078EC
:103A1000401EC0B2E07000280DD1032020708B48FA
:103A2000824206D17F49FF200870FFF732FF012054
:103A3000207102F0D7FD38BDF0B5714908788207D2
:103A400031D5FD22104008706F4C0020E080E078F6
:103A5000864601281FD90021E06884462569624610
:103A6000A8001058674AC7B2143A521817750304D1
:103A70001E0E567503021B0E9375000ED075BA19F3
:103A8000D2181018A2688018A0606D1C2561091D4D
:103A9000C9B24029E2D37046401EC0B2E07000288F
:103AA00001D103202070F0BD574BD860D9701A7037
:103AB0007047544A143A117F527F120211438142D7
:103AC00006D94F49002008704F498870012070477F
:103AD0000020704738B50025009517284AD012DC21
:103AE000132834D008DC052824D0102824D011282D
:103AF00024D012281CD128E0142830D0152830D02A
:103B0000162815D134E0404CF0284AD00ADC214672
:103B1000897818283BD019283ED0AB2831D0E0282E
:103B200006D132E0F12841D0F22841D0F32841D02B
:103B3000002038BD012038BD012038BD6A46012172
:103B4000434801F0E7FE012038BD012038BD31486F
:103B50006A4601213C3001F0DDFE012038BD012024
:103B600038BD6A4601213B4801F0D4FE012038BD32
:103B7000012038BD6A460121374801F0CBFE012003
:103B800038BD02F036FD012038BD012038BDBF2010
:103B90000140A170012038BD40200143A1700120E7
:103BA00038BD09F007FB6571012038BD012038BD23
:103BB000012038BD012038BDF8B512491439087DFF
:103BC0008446487D0B7F497F09020B430C49012540
:103BD0000A780026D7070C4C002F44D0094F143F19
:103BE000AA430A706146042938D1FFF773FF002801
:103BF00034D0FD75A07811210843A070E680F8BD8F
:103C0000E8000020680200206801002030750000F4
:103C1000E6010020809700005003002003020020EE
:103C2000FD010020A4010020BC010020A70100200C
:103C3000B8010020A9010020BA01002002020020E2
:103C40000602002004020020809000004093000043
:103C50000F930000FCA30000BC900000FF20F8754B
:103C6000A670E680CBE79207C9D5A278D706C6D55D
:103C7000EF273A40A270E680674AFD2712783A4063
:103C8000142859D00CDC112830D004DC052815D0BC
:103C900010280DD11EE0122835D0132808D13EE09F
:103CA000152855D0162860D017286AD0AB2875D0B3
:103CB000A6700E70A660A6602661A0E70220FFF73E
:103CC000F8FE0028F7D15B1C99B201225348FFF798
:103CD000EBFEF0E70A20FFF7ECFE0028EBD15B1CBF
:103CE00099B201224E48FFF7DFFEE4E70A700A208E
:103CF000FFF7DFFE0028DED1022219464848FFF711
:103D0000D3FE6571D7E71420FFF7D3FE0028D2D188
:103D10005B1C99B201224348FFF7C6FECBE70A704D
:103D20001420FFF7C6FE0028C5D1022219463D48DF
:103D3000FFF7BAFE6571BEE73020FFF7BAFE002834
:103D4000B9D15B1C99B201223748FFF7ADFEB2E74B
:103D50000A703120FFF7ADFE0028ACD102221946CF
:103D60003148FFF7A1FE6571A5E70120FFF7A1FE2D
:103D70000028A0D15B1C99B201222C48FFF794FEC9
:103D800099E70A700120FFF794FE002893D10222E0
:103D900019462648FFF788FE8DE7FFE70A700420E2
:103DA000207088E710B5224C2078030003F0ACF8AF
:103DB0000504070A0D140600FFF7FEFE10BDFFF70D
:103DC0003BFE10BDFFF7DEFD10BDFFF72BFD207998
:103DD0000028F9D1607110BDFFF714FD10BD70B55A
:103DE000134DE888401C80B2E8807D21090188429B
:103DF00010D900200F490024820052185461401C41
:103E0000C0B21028F8D30448EC8004702C7002F083
:103E1000E9FB6C7170BD0000E8000020009000001C
:103E2000C090000040930000C09700008090000008
:103E30006801002054020020FB4932200880FB4921
:103E400000200870FA48012181714B21C90081616D
:103E50007047F64900200870F54901204871FF209D
:103E6000F1492D3008807047F0B5F248F04A0578E6
:103E7000F14854780127F14BF14E0021002D27D055
:103E8000002C25D0EB4C2170446A3C43446209204D
:103E90001071A12018800020EA4C245C401C4500D1
:103EA0005C53C0B20828F7D3F068C006FCD4306871
:103EB000C0242043306030680006800F0328FAD009
:103EC0001888F061176151615170C8209070A9E0A5
:103ED000DD4D2D78002D27D0002C25D0DA4C217017
:103EE000446A3C43446211201071A22018800120D2
:103EF000D64C4500245C5C53401CC0B21128F7D35B
:103F0000F068C006FCD43068C024204330603068BC
:103F10000006800F0328FAD01888F06117615161FC
:103F20005170C82090707DE0C94D2D78002D22D0B1
:103F3000002C20D0C64C2170446A3C4344620320CC
:103F40001071A3201880C34C65789D80A4785C8094
:103F5000F368DB06FCD43368C02423433360336842
:103F60001B069B0F032BFAD0F06117615161517052
:103F7000C820907056E0B84D2D78002D27D0002C29
:103F800025D0B54C2170446A3C4344620220107134
:103F9000A42018800120B14C4500245C5C53401CD7
:103FA000C0B20228F7D3F068C006FCD43068C02441
:103FB0002043306030680006800F0328FAD018884C
:103FC000F061176151615170C82090702AE0A44DD2
:103FD0002D78002D26D0002C24D0A14C2170446ACD
:103FE0003C43446203201071A620188000209D4CA1
:103FF000245C401C45005C53C0B20228F7D3F06833
:10400000C006FCD43068C02420433060306800060D
:10401000800F0328FAD01888F06117615161517040
:10402000C82090701078002814D08448403003884D
:104030004088B12B02D15469022C05D07F4C40340A
:10404000A488B62B07D00DE0117051614007864956
:10405000400F0870F0BD5A2804D1062C02D15569D2
:10406000032D02D0B62B08D00EE0117051614B2009
:10407000C0009081FFF7EDFEF0BD5A2804D10A2C54
:1040800002D15569032D02D0B62B07D00DE0117077
:1040900051615171918175480170F0BD512804D171
:1040A000852C02D15569032D02D0B62B05D00BE02B
:1040B0001170D170FFF7C0FEF0BD512804D1762CED
:1040C00002D15069032805D050690328F4D3516107
:1040D0001170F0BD11705161917191615181F0BD0C
:1040E000F0B5534B00259D715349486A0126304372
:1040F000486203201871514AA6201080594C58205C
:10410000207066700020215C401C4700D153C0B273
:104110000228F8D34A48C168C906FCD40168C02403
:104120002143016001680906890F0329FAD011882B
:10413000C1611E615D615D70C82098701420188196
:10414000F0BD70B53C48416A012319434162384AC9
:10415000032010713949A6200880424D5120287053
:10416000622068703E48037000202C5C401C4600B2
:104170008C53C0B20228F8D33148C468E406FCD49A
:104180000468C0252C43046004682406A40F032C93
:10419000FAD00988C1611361002050615070C820B5
:1041A000907070BD22498878002814D0401EC0B29B
:1041B00088704A7810430ED1012048701E498A6ADF
:1041C00002438A621E480169082291430161016924
:1041D000042211430161704770B5174D286801230F
:1041E000800704241249164A00280FDA5069400754
:1041F0000BD5D5694869461C4E61104E40004036CB
:1042000035520B7090692043906170BD5069400732
:10421000FBD50E790869B0422AD3A86A1843A86270
:104220004B700020086129E0D8010020B701002070
:104230007C010020050100200040044060030020B4
:1042400000C001405101002009010020C8020020E7
:104250000701002022010020080100201A0100208F
:104260000A0100203401002054020020D301002064
:10427000431C0B6104494000085AD061D069906921
:104280002043906170BD000060030020F0B5FD4840
:10429000102207780826FC48FC49540295023B008E
:1042A00002F032FE120A0F161E262C32383D444C04
:1042B000525960676E767CB0416A31434162F4487E
:1042C00073E0416A402211434162F1482A306CE0B8
:1042D000416A0122520211434162ED48543064E0C8
:1042E000416A0122120311434162E9487E305CE0D9
:1042F000486A20434862E648A83056E0486A2843A6
:104300004862E348D23050E0486A10434862E048CF
:10431000FC304AE0416A11434162DE4845E0416AAF
:10432000802211434162DB482A303EE0416A01228B
:10433000920211434162D748543036E0416A21432A
:104340004162D4487E3030E0D348416A3143416213
:10435000D048A83029E0416A022211434162CD4889
:10436000D23022E0416A202211434162C948FC3028
:104370001BE0416AFF22013211434162C74814E049
:10438000416A0122D20211434162C4482A300CE042
:10439000416A29434162C148543006E0486A01221B
:1043A000D20310434862BD487E30BD4902880A628C
:1043B00042884A6282888A62C288CA6202890A6323
:1043C00042894A6382898A63C289CA63B449028A7C
:1043D00040310A60428A4A60828A8A60C28ACA6020
:1043E000028B0A61428B4A61828B8A61C28B0A62AC
:1043F000028C4A62428C8A62828CCA62C28C0A63D4
:10440000008D4863F0BD00B59E4909780B0002F0AD
:104410007BFD120A0C0F1215181B1E202326292CB7
:104420002F3234373A3C9A482FE099482A302CE012
:104430009748543029E096487E3026E095487E38EB
:1044400023E09448543820E092482A381DE09148EF
:104450001BE090482A3018E08E48543015E08D4813
:104460007E3012E08D487E380FE08C4854380CE0E6
:104470008A482A3809E0894807E088482A3004E059
:104480008648543001E085487E30854902884031B5
:104490000A6042884A6082888A60C288CA6002894B
:1044A0000A6142894A6182898A61C289CA61028A33
:1044B0000A62428A4A62828A8A62C28ACA62028B1B
:1044C0004A63428B8A63828BCA637549C28B0A62D4
:1044D000028C4A62428C8A62808CC86200BDF0B550
:1044E0006B4A684814460078FC3427461026664913
:1044F000FC37664D030002F007FD120A182635440A
:1045000053626F7C8A99A8B7D5E3F5F3F2170020C0
:1045100008244300D35A002B02D04B6A23434B623A
:10452000401CC0B21528F4D3F0BD15204024430030
:10453000D35A002B02D04B6A23434B62401CC0B2BB
:104540002A28F4D3F0BD2A20012464024300D35A60
:10455000002B02D04B6A23434B62401CC0B23F2861
:10456000F4D3F0BD3F20012424034300D35A002B91
:1045700002D04B6A23434B62401CC0B25428F4D390
:10458000F0BD542001235B034100515A002902D0A1
:10459000696A19436962401CC0B26928F4D3F0BD4E
:1045A000692001239B034100515A002902D0696A06
:1045B00019436962401CC0B27E28F4D3F0BD0020CC
:1045C0004100615A002902D0696A31436962401C86
:1045D000C0B21528F4D3F0BD15204200A25A002A1B
:1045E00002D04A6A32434A62401CC0B22A28F4D33D
:1045F000F0BD2A2080234200A25A002A02D04A6A33
:104600001A434A62401CC0B23F28F4D3F0BD3F2099
:1046100001239B024200A25A002A02D04A6A1A438E
:104620004A62401CC0B25428F4D3F0BD5420012388
:104630005B034200A25A002A02D04A6A1A434A6225
:10464000401CC0B26928F4D3F0BD69201249082388
:104650004200A25A002A02D04A6A1A434A62401C07
:10466000C0B27E28F4D3F0BD002002234200BA5A23
:10467000002A02D04A6A1A434A62401CC0B2152876
:10468000F4D3F0BDE8010020008004400060044045
:104690001E0700204408002000A004406A090020F2
:1046A00000200040152020234200BA5A002A02D0E0
:1046B0004A6A1A434A62401CC0B22A28F4D3E0E78F
:1046C0002A20FF2301334200BA5A002A02D04A6A44
:1046D0001A434A62401CC0B23F28F4D3D1E71FE01E
:1046E0000FE0FFE73F200123DB024200BA5A002A15
:1046F00002D04A6A1A434A62401CC0B25428F4D31A
:10470000BFE7542001239B034200BA5A002A02D07B
:104710004A6A1A434A62401CC0B26928F4D3B0E71F
:1047200069200122D2034100795A002902D0696A26
:1047300011436962401CC0B27E28F4D3A1E73A4815
:104740004268FF2109020A43426002680A4302608C
:104750003648426836490A43426002680A430260AA
:10476000704732480168334A11430160324801689A
:10477000324A114301603248016808221143016046
:1047800070472A4801682B4AD243114001602A48E9
:1047900001682A4AD2431140016029480168082271
:1047A00091430160704710B5264C00202060FFF750
:1047B0002AFE206802210843206020688007FCD47C
:1047C000206801210843206001F020FF01F00AFF6A
:1047D00010BD70B5FFF7D5FF01F01DFF1A4C6078D2
:1047E000401CC0B2607000250A280ED3174801781B
:1047F00000290AD101210170657001F04AFFFEF71E
:1048000005FEFEF79AFE12490860FDF706F8FFF76D
:10481000CAFFFFF764FE2078401CC0B22070122847
:1048200000D3257070BD00000040044000600440CB
:10483000EF0F000010E0000000800440FA7F00004D
:1048400000A0044000200040E8010020EE0000200D
:104850002801002010B50B22FD21E82002F0C2F84B
:1048600001220A21E82002F0BDF810BD70B50B222C
:10487000FD21E82002F0B6F810220121E82002F024
:10488000B1F8E4220D21E82002F0ACF801220E215B
:10489000E82002F0A7F8B0220F21E82002F0A2F8E9
:1048A00044221421E82002F09DF84C221521E82032
:1048B00002F098F80D22FD21E82002F093F8002084
:1048C0007E497F4C0A5C2254401CC0B24028F9D378
:1048D000002240231146E82002F0C5F80022FD2105
:1048E000E82002F07FF80022A0231146E82002F021
:1048F00095F80020714DAD1E2946423103E00A5C57
:104900002254401CC0B22A789042F8D300222B785F
:104910001146E82002F0A7F80122FD21E82002F06C
:1049200061F80022A0231146E82002F077F8002069
:104930006249503103E00A5C2254401CC0B26A78DC
:104940009042F8D300226B781146E82002F08BF8F1
:1049500070BD10B50B22FD21E82002F043F80022C3
:104960000A21E82002F03EF810BD10B55548426813
:1049700002210A43426041620A2001F0F6FEFFF77D
:10498000E8FFFFF773FFFFF765FF10BDF8B54E486E
:104990000024007800280FD00122FD21E82002F039
:1049A00021F8682380222021E82002F05CF84648A4
:1049B000047046480470F8BD404E454860360078A3
:1049C000334642333E4900280FD00020325C550068
:1049D00052199D5C4C55D21855784C5592788C5490
:1049E000401CC0B24228F1D33AE00020364A39498F
:1049F0009478527800920A78A646304960310B5C70
:104A00003549C95C7446002C01D0344C615C009C73
:104A1000002C34D0304C51434234E45C65006419BE
:104A20002F4DA446641965784D432E0C5D005D1929
:104A3000224BA2335F5D224BDE55A4781F4E4C43C0
:104A4000240CA236AD196E789C55254E6446345D13
:104A50004C43210CAC781955401CC0B24228CCD331
:104A60000022FD21E82001F0BDFF8023002220214B
:104A7000E82001F0F8FF144801210170F8BD164C40
:104A80005143C63CE45C4C43260C5C001D190B4CA6
:104A9000A234675D0A4CE6550F4E084F423EF65C65
:104AA000A2374E43360CED196F78E6550A4E843E18
:104AB000F35C4B43190CAB78E154CDE7488D000013
:104AC0005C12002000600440F6010020010200207A
:104AD000CE01002007020020D00C0020BF7C000087
:104AE000788B000010B5F84C617A2046807AFF2957
:104AF00003D0F649085CE07202E0F549085CE07218
:104B0000E08AE17A4843FF21913102F0CFF8A08298
:104B1000608210BD70B5EC4C022060700F208001E7
:104B2000E082FFF7DFFFEB4900200870A070EA4940
:104B30000870A071217CE94D4C000C19295D6519A4
:104B40006C78E74BE74EE84AAD7819543454155465
:104B5000401CC0B24228F8D30020E44AFF2111547F
:104B6000401CC0B24228FAD370BDF8B5D64C0A201A
:104B70006070E082FFF7B6FFD64900200870A07091
:104B8000D5490870A0710021D54BD64ED64FD848D4
:104B9000405CD84A4C00125BD74C45006253D74C5E
:104BA0002478A24204D300221A5432543A5409E021
:104BB0005400CA4D1219AC5C1C5452195478345428
:104BC00092783A54491CC9B24229E0D30020C7491F
:104BD000FF220A54401CC0B24228FAD3F8BDF8B5EF
:104BE000B94D00246C706420E882FFF77BFFB94860
:104BF0000470AC70AC71697AB748FF25BB4EFF29D1
:104C00000AD0012202700020BD4A11543554401CC4
:104C1000C0B24228F9D3F8BD04700020B949B04AA7
:104C2000B14BB04F0C7914544C791C548C793C54D2
:104C30003554401CC0B24228F4D3F8BDF8B5A24D9B
:104C400000246878012800D0AC700D206870FF2027
:104C50001930E882FFF746FF9E4901200870AC71C9
:104C6000697A9D4AA14EFF2909D010700020A44AFC
:104C700011543454401CC0B24228F9D3F8BD14700A
:104C80000020A049964A984B964F0D7915544D79BE
:104C90001D548D793D543454401CC0B24228F4D385
:104CA000F8BDF8B5884E00247078012800D0B470A3
:104CB00001257570FF201930F082FFF713FF85483A
:104CC0000570B471717A8448884EFF2909D0057047
:104CD00000208B4A11543454401CC0B24228F9D3EE
:104CE000F8BD0470002087497D4A7F4B7D4F0D79C8
:104CF00015544D791D548D793D543454401CC0B227
:104D00004228F4D3F8BD70B56F4C02206070C82003
:104D1000E082FFF7E7FE6F4800210170A1706E4846
:104D20000170A171217400206C4D4C000C19295D9B
:104D300065196C786A4B6B4E6B4AAD7819543454D4
:104D40001554401CC0B24228F8D30020674AFF2106
:104D50001154401CC0B24228FAD370BDF8B55A4C69
:104D6000092060703C20E082FFF7BCFE594900201A
:104D70000870A070A07158490870002220E000213E
:104D8000614B5000C01886466048544C835C580004
:104D90001818265C00194778807884467046405C75
:104DA000554C450063534E4C26544E4C27544E4CA4
:104DB00065462554491CC9B20229EFD3521CD2B210
:104DC000534800788242DAD30020484AFF21115428
:104DD000401CC0B24228FAD3F8BDF8B53A4C0520C1
:104DE00060701C20E082FFF77DFE3A4800260670C6
:104DF000A670A67138480670267400203E4F374DC5
:104E00003B49095C434A125C92194B00FA52530029
:104E1000D218334BAC5C5C545219324B54785C540E
:104E20009378314A5354401CC0B24228E8D3002042
:104E30002E4AFF211154401CC0B24228FAD3F8BDBB
:104E400010B52148017A072903D90121C9034978FE
:104E50000172007A030002F057F80C070A190D13CB
:104E60001016090909091C09FFF7B7FF10BDFFF764
:104E700075FF10BDFFF747FF10BDFFF712FF10BD14
:104E8000FFF7DCFE10BDFFF7AAFE10BDFFF76DFEB9
:104E900010BDFFF73FFE10BD0B494A7A0846007B64
:104EA000FF2A03D01C4A105C487370471B4A105CF1
:104EB0004873704700200D4A00211154401CC0B2B5
:104EC0004228FAD370470000FA010020F67F000064
:104ED000FFD50000F8010020F7010020D0D200002B
:104EE0000A0C00204C0C00208E0C0020D00C00205E
:104EF000928F000010D50000540D0020CC7F0000E0
:104F0000120D00205003002088D50000D48F00002F
:104F1000D07F0000508F0000EE7F0000EED5000033
:104F200070B5FFF7C7FFFA4C0025E5700120C003FC
:104F3000817A2172C17A6172017B2173407BA072F8
:104F4000207AF449400040184078A073FFF7A4FF8E
:104F5000FFF776FFE570E573607AFF2824D1EE480D
:104F6000017CEE4D2971417C6971817CA971C17C04
:104F7000E972017D2973417D6973807DA873A97BE6
:104F80000120012903D0A97B022902D002E0E070B0
:104F900000E0E070287B2073FFF77EFFFFF750FFF3
:104FA000687BA072FFF79EFD70BDD948807900280C
:104FB00088D00020DA4A115C002901D0491E115422
:104FC000401CC0B24228F6D37CE7D64900200856E0
:104FD000D54900280DD0012813D0022819D0032864
:104FE00006D1002007220A54401CC0B24228FAD33E
:104FF00068E7002000220A54401CC0B24228FAD3BD
:1050000060E7002003220A54401CC0B24228FAD3B1
:1050100058E7002005220A54401CC0B24228FAD3A7
:1050200050E7F0B50021BA48C04CC578C04EC14821
:10503000405C002D12D04200A35A002B1AD05B1EF8
:10504000A352BD4B4200A25A1B789A4217D30022AA
:105050003254BA4B1A54BA4B1A541CE04300E25A69
:10506000521C92B2E252B74F3F88BA42E9D30022B3
:10507000E252E6E7B34B1B885B1EA352E1E7530005
:10508000B14FD218BB5C3354D219AC4B57781F5474
:105090009378AB4A1354491CC9B24229C7D3F0BD17
:1050A000F0B50023A14F26E000219948A74AC07817
:1050B00084465800821896466246012A20D03A5A01
:1050C000002A28D0521E3A527246525C3C5A650061
:1050D00064199D4D2E5D964DAE549B4D6419974DB0
:1050E0006678AE54A578964CA554491CC9B20229DD
:1050F000E2D35B1CDBB2964800788342D4D3F0BD88
:105100003A5A521C92B23A52924C2478A242DBD3C1
:1051100000223A52D8E78F4A1278521E3A52D3E709
:10512000F0B500217A48C4788B4803885B1E81481B
:10513000405C002C0CD07D4E4500725B521C92B23C
:105140007253854F3F88BA4209D30022725306E05A
:10515000764E4200B55A002D10D06D1EB552734ADE
:105160004500525B744D2D78AA4209D3704D002240
:105170002A54724D2A54724D2A540EE0B352EEE76F
:1051800055005219704D6A4EAF5C375452196B4D31
:1051900056782E5495786A4A1554491CC9B242294A
:1051A000C5D300214120421A6248805C002C0CD0FB
:1051B0005E4D84352A5C521CD2B22A54664E368823
:1051C000B24209D300222A5406E0584D84352A5CA5
:1051D000002A17D0521E2A54554D584E2A5C375C6F
:1051E000D719574A125CD7421AD1504A524F8432CB
:1051F000125C3F78BA4207D300222A543254504DF1
:105200002A540DE02B54E7E75700D2194E4FBF5CEC
:105210002F544D4D5219557835549578484A1554A8
:10522000491CC9B24229BDD3F0BDF0B500213848B0
:105230003E4CC5783E4E3F48405C002D18D04200A1
:10524000A35A002B20D05B1EA3524200A25A3E4F0D
:105250005300D218BB5C3354D219384B57781F54C3
:105260009378374A1354491CC9B24229E3D3F0BD9D
:105270004300E25A521C92B2E2522F4F3F78BA4298
:10528000E3D30022E252E0E72B4B1B785B1EA352D4
:10529000DBE7F0B50020254E304FC6361FE0304921
:1052A0000978002909D0315C491CC9B231543A78D7
:1052B000914207D30021315404E0315C002913D01E
:1052C000491E3154325C2749204D895C4200AC5C58
:1052D000134B1955521952789954401CC0B22249A7
:1052E00009788842DBD3F0BD3978491E3154E9E7AB
:1052F00070B51B480D49037841220888002B35D032
:10530000401C80B20880422834D30020088031E05D
:10531000FA010020BE7F0000208000005003002022
:10532000D00C0020AD010020120D0020540D0020F3
:105330000A0C0020928F0000CC7F00004C0C002053
:105340008E0C0020CE7F0000D0D2000088D5000057
:10535000D07F0000017E0000EC7F0000CD7F0000C8
:10536000BC010020BC8E0000EB7F000000280DD0A7
:10537000401E08800888FE4B195CFE4CFE4D2678C6
:105380006E54101A185C2178295470BD0A80F1E718
:10539000F0B50020F949FA4C0B78FA4AFA4DF64F6D
:1053A000002B09D0115C491CC9B211542678B142B6
:1053B00007D30021115404E0115C002909D0491ED3
:1053C0001154115C695C3954401CC0B24228E7D3C7
:1053D000F0BD2178491E1154F3E770B5EB49087C04
:1053E000401CC0B20874EA4A1278904201D30020EF
:1053F00008740020097CE74D4C000C19295D6519E3
:105400006C78E54AE54EE64BAD78115434541D54A2
:10541000401CC0B24228F8D370BDF0B5DB4CA07878
:10542000401CC0B2A070DF490A780021904200D32E
:10543000A170607AD04EFF2803D0A378002B12D041
:1054400017E00020D849D44AD54BD44FA5780C7921
:1054500014544C791C548C793C543554401CC0B2C3
:105460004228F4D3F0BD401CC0B26072082800D3BB
:1054700061720020CD4A617A11543354401CC0B28D
:105480004228F9D3F0BDF0B5C04CA078401CC0B2A2
:10549000A070C4490978884201D30020A070617AC5
:1054A000B54EFF2909D00020C04AA37811543354C7
:1054B000401CC0B24228F9D3F0BD0020BA49B64A18
:1054C000B74BB64FA5780C7914544C791C548C7991
:1054D0003C543554401CC0B24228F4D3F0BDF0B562
:1054E000AA48FF25417AA44EFF2908D00020AF4AE0
:1054F00011543554401CC0B24228F9D3F0BD0020ED
:10550000A949A54AA64BA54F0C7914544C791C54B3
:105510008C793C543554401CC0B24228F4D3F0BDC1
:1055200070B59A4CE07B002841D1607900230125B9
:10553000002803D06371FFF738FDE571207800285B
:1055400030D023706078030001F0DEFC0E080B11F0
:105550002B141D17201A23262B290E2BFFF7BFFF14
:105560001FE0FFF790FF1CE0FFF757FF19E0FFF780
:1055700034FF16E0FFF70CFF13E0FFF7B9FE10E071
:10558000FFF787FE0DE0FFF750FE0AE0FFF7C8FDCA
:1055900007E0FFF785FD04E0FFF743FD01E0FFF7BB
:1055A00014FDE571E079002801D0FFF7EFF970BD37
:1055B00076497F4A087A4000135C4B728018407825
:1055C00088737FE4F8B5714C042060706420E08239
:1055D000FFF788FA774900200870A070764A012109
:1055E0001170A0712146754D664C704A664E624F2F
:1055F0004B7A295C21541354715C3954401CC0B25D
:105600004228F6D3F8BDF8B5604E08207070A0208F
:10561000F082FFF767FA6749002008703074664A25
:1056200001211170B071664F11E06649554A095C5D
:105630001154654D4300EA5C4F4CA1545B195B78F3
:10564000E1545A4C717AA154E154401CC0B23978EB
:105650008842EAD3F8BD70B54C4C062060704B20F0
:10566000C000E082FFF73EFA524900200870A070A7
:10567000514A01211170A1714249C63908803C4B41
:1056800018783C4A3C4915780D544120185C127832
:105690000A540020454A617A1154401CC0B2422885
:1056A000FAD370BDF8B5394C072060703220E08223
:1056B000FFF718FA3F4900200870A0703E490870B3
:1056C000A07100212A4D414E685C4A002D4B4400D8
:1056D000B25AC63B1A532E4B1B789A4207D32E4B15
:1056E00000221A542D4B1A542D4B1A540CE053001F
:1056F000D218284F284BBC5C1C54D219274B547825
:105700001C549378264A1354491CC9B24229DBD34E
:105710000021224B4120421A1548805C2B4A4C0044
:10572000125D184C423C22541B4C1E5C255CAE1989
:105730001B4D2F5CFE4212D1154E3678B24204D377
:10574000002222541A542A5409E056009219114E8C
:10575000B75C2754921954781C5492782A54491CE7
:10576000C9B24229D6D30020034AFF2111542FE0A9
:10577000928F00003F7D0000D00C0020BC01002073
:10578000CD7F00001A0E0020BC8E0000FA01002020
:10579000CC7F0000D0D200000A0C00204C0C00206E
:1057A0008E0C0020407D000050030020120D0020D0
:1057B000BE7F0000F8010020F70100201C8F0000D0
:1057C000D07F0000D17F000088D50000C8D5000040
:1057D000401CC0B24228C9D3F8BD10B5294C0B20DB
:1057E0006070FF209130E082FFF77CF926490120AC
:1057F00008700021A170254A1070A1710020244A70
:105800001154401CC0B24228FAD310BD00B5FFF7B6
:1058100051FB00BD70B51B4C1E48A0826082202049
:1058200060730C2060701848012606700025A57072
:1058300016480670A5710020154A174B40211154D7
:105840001D54401CC0B24228F9D3267070BD0D49CA
:10585000C87AFF2809D0888A401E0004000C88827C
:1058600003D1488A888201200870AAE60549087990
:10587000401CC0B20871042803D90020087101201F
:1058800048719EE6FA010020F8010020F70100208F
:10589000D00C0020C4090000120D00203149022262
:1058A0008A60086188684022104388604868C007A1
:1058B000FCD1704730B52B4C63680425AB43636063
:1058C0000123A360206100BF00E000BF6068C00743
:1058D000FBD10CE0107853781B020343907800044E
:1058E0001843D3781B060343E360121D091F0029E8
:1058F000F0D1A06840210843A06000BF00E000BFD5
:105900006068C007FBD16068400701D5012030BD49
:10591000002030BD30B5134B5C680425AC435C609F
:1059200001249C60186100BF00E000BF5868C007F8
:10593000FBD103E001CAD86000BF491E0029F9D19C
:10594000986840210843986000BF00E000BF586895
:10595000C007FBD15868400701D5012030BD0020A9
:1059600030BD000000200640FE49FD4808600020D0
:105970008860FD4A4A60FE49FC4A0A608860FD4A28
:105980004A60FD49086008048860F748C6304860EE
:10599000F349FA4849310160F94981606821416061
:1059A0007047F8B5EE49EF48C1310160ED4AF5485E
:1059B000906000245460EE4A116090605460EE4E96
:1059C0003160B0607460ED4A1160906054600A20EC
:1059D00000F0CBFEEC4D6C70AC70EC702C7170680C
:1059E0000227384370607762642000F0A9FE3068B7
:1059F0000124C007002800D06C703068400700D533
:105A0000EC70706838437060B762642000F098FEF4
:105A10003068C00700D1AC703068400700D42C71EA
:105A2000022070627168014071606878012802D1BB
:105A3000A878012803D0E878012802D005E02C706E
:105A400003E02879012800D12C7000206870A8702C
:105A5000E8702871706808273843706077626420A6
:105A600000F06EFE3068400700D56C703068C006EC
:105A700000D5EC70706838437060B762642000F045
:105A80005FFE3068400700D4AC703068C00600D4B8
:105A90002C7108207062716801407160687801287B
:105AA00002D1A878012803D0E878012802D005E0C7
:105AB0002C7003E02879012800D12C700020687038
:105AC000A870E870287170680127BF0338437060C0
:105AD0007762642000F034FE3068C00600D56C7038
